:020000040800F2
:1000000068090020010100083B120008D10C00081B
:1000100037120008250B0008CF1B00080000000065
:10002000000000000000000000000000BD170008F4
:10003000B10B0008000000001F150008D1180008CF
:100040001B0100081B0100081B0100081B01000820
:100050001B0100081B0100081B0100081B01000810
:100060001B0100081B0100081B0100081B01000800
:100070001B0100081B0100081B0100081B010008F0
:100080001B0100081B0100081B0100081B010008E0
:100090001B0100081B0100081B0100081B010008D0
:1000A0001B0100081B0100081B0100081B010008C0
:1000B00091190008C11900081B0100081B01000864
:1000C0001B0100081B0100081B0100081B010008A0
:1000D0001B010008E91A00081B0100081B010008A9
:1000E0001B0100081B0100081B010008DFF80CD0F1
:1000F00000F07AFC00480047D14100086809002060
:100100000648804706480047FEE7FEE7FEE7FEE7B1
:10011000FEE7FEE7FEE7FEE7FEE7FEE7D51800088C
:10012000ED0000082DE9F0410024061B254671F181
:10013000000605DA01240027D0EB070067EB010178
:10014000161E73F1000605DA0027D2EB070201251F
:1001500067EB030300F0ACFA86460E4617469C4652
:10016000AC4204D00025D0EB050E65EB010624B1AE
:100170000020D2EB000760EB030C704631463A4694
:100180006346BDE8F081D2B201E000F8012B491EC0
:10019000FBD270470022F6E710B513460A46044624
:1001A0001946FFF7F0FF204610BD30B50446002089
:1001B000034600E05B1C934203D2E05CCD5C401B35
:1001C000F8D030BDF0B480EA0102D40F4200B2EBA7
:1001D000410F02D20246084611464A0042D0C30DE2
:1001E000DDB2C1F3C752AD1A202D35DAC1F31601C5
:1001F00041F4000204B15242C5F1200602FA06F1B0
:100200002A411044B3EBD05F23D0C4B1012DA0EB41
:10021000C35009DCF0BC4FF0004202EAC352DBB22B
:1002200000F5000000F09FBA400000F1807000EB84
:10023000C350A0F1807040EAD170490009E049083C
:1002400041EAC071A0EBC35000F50000400800EB8C
:10025000C350F0BC00F07EBA6142012202EB4101C2
:10026000001BF6E7F0BC704781F00041AAE780F080
:100270000040A7E780EA010210B502F00043400009
:1002800022D04A001FD0010E01EB1261C0F35600CC
:10029000C2F3560240F4000042F40002A0FB022028
:1002A00000047F39140400D0401C50EA124001D4ED
:1002B0004000491EC2B20C0604EBD010401C40089E
:1002C000802A02D003E0002010BD20F001000029A8
:1002D00000DA0020184310BD30B480EA010202F0B9
:1002E000004530F0004221F0004013D090B1C30D22
:1002F000D40DC2F31601C0F31600E41A41F4000154
:1003000040F400027D34914201D3641C00E04900B6
:10031000002C02DA30BC002070474FF400000023AC
:10032000914201D3891A034340084FEA4101F7D1B2
:1003300051B1914202D14FF0004105E002D24FF09D
:10034000010101E06FF0010103EBC450284430BC0F
:1003500000F000BA2DE9FE4F804681EA0300C00F8D
:100360000C46009021F0004123F00045B8EB02005C
:10037000A94105D24046214690461C460B460246FE
:1003800023F00040104347D0270DC7F30A00C3F302
:100390000A510290401A019040286BDAC3F313000F
:1003A00040F4801B0098924620B10023D2EB030A50
:1003B00063EB0B0B01985946C0F14002504600F028
:1003C000A8F906460D4650465946019A00F0B0F984
:1003D00010EB08006141002487EA115284EAE773B8
:1003E0001A4340D0009A62B3019A012A4FEA075299
:1003F00015DC001B61EB02014FF0004202EA0752DC
:10040000CDE90042001C41F5801132462B4600F038
:10041000E7F903B0BDE8F08F40462146F9E7001B3D
:1004200061EB0201001C41F5801300185B412018AC
:10043000A2F5001747EB030140EAD570B6196D41EC
:1004400011E06D084FEA360645EAC0754FEA0752DB
:10045000001B61EB0201001C41F5801149084FEAC5
:1004600030000019514132462B4603B0BDE8F04F31
:1004700000F0A7B90098012240000023D0EB02024F
:1004800063EBE073009821464FEAE074B8EB00009C
:1004900061EB0401E9E783F000435BE781F0004191
:1004A00058E72DE9FE4F81EA030404F0004421F0EF
:1004B000004100944FF0000B23F0004350EA010488
:1004C0005ED052EA03045BD0C3F30A54C1F30A5569
:1004D0002C44A4F2F3340194A0FB0254C1F31301A1
:1004E00041F48011C3F3130343F4801301FB02446E
:1004F00000FB034E840A970A44EA815447EA835773
:10050000A4FB076802958D0A05FB07854FEA932C2B
:1005100004FB0C542705029D4FEA065847EA16379C
:10052000B5EB08056EEB070C870E920E47EA8117B4
:1005300042EA8312A7FB0201B6EB0B0164EB000455
:100540002B0D43EA0C335E1844EB1C50DA4651463F
:10055000E7FB0201C5F313044FEA0B3343EA1453DC
:100560004FEA0432019C43EA0603A4F10C0402940E
:10057000009CCDE900B400F033F903B0BDE8F08F82
:1005800000200146F9E7C10F80EAE0700844CA077D
:100590009623002100F0E7B896230022114600F0D0
:1005A000E2B800F0004220F00040C10DC0F3160098
:1005B00040F400007F2901DA00207047962903DC0F
:1005C000C1F19601C84001E096398840002AF4D074
:1005D0004042704720F00040C10DC0F3160040F4C7
:1005E00000007F2901DA00207047962903DCC1F161
:1005F0009601C840704796398840704700F0004225
:1006000030F000400AD0C10D01F56071C0F3160052
:1006100042EA0151C20840071143704700200146D9
:10062000704701F0004330B421F0004150EA01026C
:1006300006D00A0DA2F56072C1F31301002A02DC94
:1006400030BC00207047440F44EAC104C100E018E8
:1006500030BC00EBC25000F07DB80000002801DB88
:10066000C0F10040002901DBC1F100418142704727
:10067000002801DBC0F10040002901DBC1F100418D
:100680008842704730B50B460146002020220124E5
:1006900009E021FA02F59D4205D303FA02F5491B50
:1006A00004FA02F52844151EA2F10102F1DC30BD66
:1006B0002DE9F05F0546002092469B468846064697
:1006C000814640241BE0284641464746224600F02A
:1006D0009DF953465A46C01A914110D31146184607
:1006E000224600F016F82D1A67EB01084F46224605
:1006F0000120002100F00DF817EB00094E41201EEB
:10070000A4F10104DFDC484631462A464346BDE8F1
:10071000F09F202A04DB203A00FA02F10020704703
:100720009140C2F1200320FA03F31943904070472F
:10073000202A06DBCB17203A41FA02F043EAE073A5
:1007400006E041FA02F3D040C2F120029140084392
:10075000194670470029A8BF7047401C490008BFD0
:1007600020F00100704710B4B0FA80FC00FA0CF0E1
:1007700050EA010404BF10BC704749B1CCF1200419
:1007800021FA04F411FA0CF118BF012121430843A6
:10079000A3EB0C01CB1D4FEA00614FEA102042BFD2
:1007A000002010BC704700EBC35010440029A4BFC8
:1007B00010BC7047401C490008BF20F0010010BC6D
:1007C000704710B5141E73F1000408DA401C41F1A3
:1007D000000192185B411A4301D120F0010010BDC5
:1007E0002DE9F04D92469B4611B1B1FA81F202E03B
:1007F000B0FA80F220329046FFF78BFF04460F4696
:1008000040EA0A0041EA0B0153465A46084313D016
:10081000114653EA010019D0C8F14002504600F0D9
:10082000F5F805460E46504659464246FFF771FF19
:10083000084305D0012004E020463946BDE8F08D8C
:100840000020054346EAE0762C4337430A986305C7
:10085000E40AA0EB08000022FD0A44EA47540A30EB
:1008600002D500200146E9E7010510196941DDE9DB
:10087000084500196941BDE8F04DA2E72DE9F04DAA
:1008800081EA030404F0004B21F0004514464FF0C8
:10089000000A23F0004150EA050220D054EA010288
:1008A0001DD0C5F30A570246C5F31303C1F3130065
:1008B000C1F30A5640F4801543F48013A7EB0608F1
:1008C000101BD64608F2FD3873EB050002D308F181
:1008D000010801E092185B41B8F1000F03DA002033
:1008E0000146BDE8F08D00204FF480110646844695
:1008F0000EE0171B73EB050705D3121B63EB050313
:1009000006434CEA010C49084FEA300092185B415B
:1009100050EA0107EDD152EA030012D082EA040046
:1009200083EA0501084305D0101BAB4106D2012222
:10093000002306E000224FF0004302E06FF00102C6
:1009400053101AEB06004CEB085110EB0A0041EB78
:100950000B01BDE8F04DFFF734BF70B521F0004347
:1009600003430CD0C1F30A550024D5EB040564EB16
:100970000403D617AD1AB34102DB0020014670BD57
:10098000201841EB025170BDC1F30A52C1F31301AB
:1009900040F2FF3341F480119A4202DA002001460E
:1009A000704740F233439A42A2F2334202DC524291
:1009B00000F02CB8FFF7ADBE30B5041E71F1000495
:1009C00004DB4FF00044404264EB0101141E73F15C
:1009D000000405DB1C464FF00043524263EB040366
:1009E000994208BF904230BD064C074D06E0E068D2
:1009F00040F0010394E8070098471034AC42F6D366
:100A0000FFF778FBC8690008E8690008202A04DBC2
:100A1000203A21FA02F00021704721FA02F3D04077
:100A2000C2F1200291400843194670472DE9F04D6C
:100A300000231A461B1A8A4103DB00200146BDE849
:100A4000F08DC1F30A52C1F3130141F480154FF048
:100A5000000BD10702D100186D41521E0027044639
:100A600040F2FF11384601EB620A3E4680460246DC
:100A700000204FF48011FFF7C9FFC2197141BB1864
:100A800046EB0100B4EB030C75EB000C04D3E41A45
:100A900065EB000517460E46241908F101006D416B
:100AA00080463428E3DDF91946EB0600091BA8410E
:100AB00003D24FF0FF32134601E0002213461BEB36
:100AC000070046EB0A51BDE8F04DFFF77ABE70B55E
:100AD0008C1810F8015B15F0070301D110F8013BE9
:100AE0002A1106D110F8012B03E010F8016B01F870
:100AF000016B5B1EF9D12B0705D40023521E0DD4C8
:100B000001F8013BFAE710F8013BCB1A921C03E015
:100B100013F8015B01F8015B521EF9D5A142D8D34D
:100B2000002070BD00BFFEE738B5002000906B4686
:100B300001227521682003F0A5FA9DF800006828BD
:100B40000ED000BF1748006800F4E0601649084363
:100B5000001D14490860BFF34F8F00BF00BFFEE7C0
:100B600003F0E2FCE0B9782004F0E8FA782003F022
:100B7000C9FBC82004F094FA02F0F8FA0B4803F01D
:100B8000ECFA044602F04CFD40F2731002F096F9C4
:100B9000C82002F075FC04F07BFB012004F07CF916
:100BA00038BD00000CED00E00000FA054004002014
:100BB00070472DE9F0410246002500260020002361
:100BC0000024002791F803C00CF00F0591F803C032
:100BD0000CF0100CBCF1000F03D091F802C04CEAED
:100BE000050591F800C0BCF1000F31D01468002059
:100BF0002BE04FF0010C0CFA00F3B1F800C00CEA46
:100C000003069E4220D183004FF00F0C0CFA03F72D
:100C1000BC4305FA03FC4CEA040491F803C0BCF1A0
:100C2000280F06D14FF0010C0CFA00FCC2F814C0DA
:100C30000AE091F803C0BCF1480F05D14FF0010C58
:100C40000CFA00FCC2F810C0401C0828D1D3146074
:100C5000B1F800C0BCF1FF0F34DD546800202EE075
:100C600000F1080C4FF0010808FA0CF3B1F800C0CD
:100C70000CEA03069E4221D183004FF00F0C0CFAC0
:100C800003F7BC4305FA03FC4CEA040491F803C0E3
:100C9000BCF1280F05D100F1080C08FA0CF8C2F8D5
:100CA000148091F803C0BCF1480F07D100F1080C83
:100CB0004FF0010808FA0CF8C2F81080401C082810
:100CC000CED35460BDE8F081416170470161704747
:100CD00000BFFEE770B505460E46002400F028F977
:100CE000284600F0EDF8641C00F07AF9304600F078
:100CF000E7F8641C00F074F900F01AF9691CC8B236
:100D000000F0DEF8641C00F06BF9002000F0A2F89F
:100D1000044600F041F9204670BD000010B52021C6
:100D20000748FFF7D3FF80210548FFF7CFFF802159
:100D30000348FFF7C9FF20210148FFF7C5FF10BD99
:100D40000008014010B520210548FFF7BFFF8021B2
:100D50000348FFF7B9FF80210148FFF7B7FF10BD37
:100D60000008014010B520210348FFF7AFFF202104
:100D70000148FFF7A9FF10BD0008014010B5002091
:100D80000E4908600E48006820F070400C49086069
:100D90000846006840F04050086000200949C1F84A
:100DA0009C0100F011F801200449086000F00CF8E3
:100DB00000200449C1F8980110BD0000988121422B
:100DC000000C01400080214210B5022002F032F8F0
:100DD00010BD000008B50121082000F0B1FBC020C3
:100DE000ADF8000010208DF8030003208DF80200FC
:100DF00069460448FFF7DDFEC0210248FFF766FFA1
:100E000008BD0000000C014010B500200E4908602C
:100E10000E48006820F070400C49086008460068E1
:100E200040F04050086001200949C1F89C01FFF7DB
:100E3000CBFF012004490860FFF7C6FF00200449EA
:100E4000C1F8980110BD000098812142000C0140BA
:100E50000080214270B5054600241648006820F045
:100E60007040144908600846006840F0004008607F
:100E7000002614E0002010490860FFF7A5FF0120BC
:100E80000E49C1F898016006040E0B487C380068D2
:100E900008B1601CC4B2FFF797FF701CC6B2082EE1
:100EA000E8DB15B9FFF7B0FF01E0FFF767FF204669
:100EB00070BD0000000C0140988121420080214259
:100EC00070B504461748006820F070401549086066
:100ED0000846006840F04050086000201249086051
:100EE00000251BE0E00920B101200F49091D086021
:100EF00003E000200C49091D08606006040EFFF79E
:100F000063FF012008490860FFF75EFF00200749E2
:100F1000C1F89801FFF758FF681CC5B2082DE1DB46
:100F200070BD0000000C01409881214200802142E8
:100F300010B51648006820F0704014490860084653
:100F4000006840F0405008600120114908601148D5
:100F5000D0F81C0108B9002010BD01200C49091F60
:100F60000860FFF731FF00200A49C1F89C010848DA
:100F70008038006808B10020EEE7FFF725FF002069
:100F80000349091F08600120E6E70000000C01404A
:100F90009C8121420080214210B50E48006820F05B
:100FA00070400C4908600846006840F040500860F6
:100FB0000020094908600949C1F89C01FFF704FFB6
:100FC0000120054908600549C1F89C01FFF7FCFEB6
:100FD00010BD0000000C0140988121420080214298
:100FE00010B500241548006820F0704013490860CF
:100FF0000846006840F00040086001201049086081
:10100000FFF7E2FE01200F49C1F89801FFF7DCFE6F
:1010100009E0601CC4B2642C03DDFFF7BDFF0020B3
:1010200010BDFFF7D1FE0648803800680028F0D1D7
:101030000349091F08600120F2E70000000C01408D
:101040009C8121420080214270B505460E4614461F
:1010500031462846FFF73EFE2070012070BDF8B5EE
:1010600006460F4614461D466A4639463046FFF787
:10107000EBFF2DB10120A0409DF80010084305E0D2
:101080000120A0409DF8001021EA0000C0B20090AD
:101090009DF800203946304600F036F8F8BD2DE9BD
:1010A000F8430746884614461D46089E6A46414650
:1010B0003846FFF7C9FF28B3601CFF2101FA00F092
:1010C000C4F108012944491EFF220A41104300F0DF
:1010D000FF09C5F1080006FA00F0C6B2C4F1070026
:1010E00006419DF8000000EA090000909DF800000C
:1010F000304300909DF800204146384600F004F847
:10110000BDE8F8830020FBE737B504460D4602AB87
:1011100001222946204600F001F83EBD2DE9F041AC
:1011200080460D4616461F460024FFF701FF404645
:10113000FFF7C6FEFFF754FF2846FFF7C1FEFFF793
:101140004FFF00BF06E0385DFFF7BAFEFFF748FF2C
:10115000601CC4B2B442F6DBFFF71EFF0120BDE8FD
:10116000F081000008B50121102000F0E9F94FF4EA
:101170000050ADF8000010208DF8030003208DF81A
:10118000020069460448FFF714FD4FF4005102487D
:10119000FFF79CFD08BD00000010014010B50220C3
:1011A00000F010F8032000F021F8002000F014F8FF
:1011B000002000F037F8002000F02BF8002000F0AD
:1011C0001FF810BD38B50446032302226B21D0203E
:1011D0000094FFF764FF38BD38B5044602230422AB
:1011E0001C21D0200094FFF75AFF38BD38B50446C3
:1011F000022304221B21D0200094FFF750FF38BDAA
:1012000010B50446234601223721D020FFF727FFDF
:1012100010BD10B50446234605226A21D020FFF7F1
:101220001EFF10BD10B50446234606226B21D020B8
:10123000FFF715FF10BD00BFFEE7704770B5002136
:1012400000230F22C47804B3154C246804F4E0642E
:10125000C4F5E064210AC1F10403CA40447804FAE9
:1012600003F184781440214309010E4C0678A155FE
:10127000047804F01F050124AC4005786D11AD0021
:1012800005F1E025C5F8004109E0047804F01F05E8
:101290000124AC40044D0678761145F8264070BD17
:1012A0000CED00E000E400E080E100E070B5002417
:1012B00018E004F1B000002100F025F900210846F3
:1012C00000F021F90021102000F01DF9002505E0B3
:1012D0000121002000F017F9681CC5B2802DF7DB52
:1012E000601CC4B2082CE4DB70BD000008B501210D
:1012F000042000F025F9A020ADF8000010208DF8A2
:10130000030003208DF8020069463C48FFF751FCBA
:10131000A0213A48FFF7DAFC4FF4487001F064FD71
:101320000021AE2000F0EFF80021084600F0EBF8B5
:101330000021102000F0E7F80021402000F0E3F841
:101340000021B02000F0DFF80021812000F0DBF860
:101350000021FF2000F0D7F80021A12000F0D3F8F1
:101360000021A62000F0CFF80021A82000F0CBF843
:1013700000213F2000F0C7F80021C82000F0C3F88A
:101380000021D32000F0BFF80021084600F0BBF890
:101390000021D52000F0B7F80021802000F0B3F83C
:1013A0000021D82000F0AFF80021052000F0ABF8B4
:1013B0000021D92000F0A7F80021F12000F0A3F8C7
:1013C0000021DA2000F09FF80021122000F09BF8A5
:1013D0000021DB2000F097F80021302000F093F886
:1013E00000218D2000F08FF80021142000F08BF8F0
:1013F0000021AF2000F087F808BD00000008014080
:1014000070B504460D4605F1B000002100F07BF8F0
:10141000102141EA1410002100F075F804F00F00CB
:10142000002100F070F870BD2DE9F04707460E4628
:101430009046994600250024A8F12000C5B27F2FD0
:1014400002DD0027B01CC6B2B9F1100F24D131461D
:101450003846FFF7D5FF002408E004EB0511194AD0
:10146000505C012100F04FF8601CC4B2082CF4DB82
:10147000701CC1B23846FFF7C3FF002409E004EB3B
:10148000051108310F4A505C012100F03CF8601C46
:10149000C4B2082CF3DB12E031463846FFF7B0FF48
:1014A00000240AE005EB4501074A02EB4101085D13
:1014B000012100F028F8601CC4B2062CF2DBBDE864
:1014C000F087000050560008285400082DE9F0412C
:1014D00004460F461546984600260FE0AA5D43468F
:1014E00039462046FFF7A0FF04F10800C4B2782C6B
:1014F00002DD0024B81CC7B2701CC6B2A85D00286B
:10150000ECD1BDE8F08170B504460D461DB1E0B2E6
:1015100000F0A0FB02E0E0B200F086FB70BD704777
:1015200029B1064AD2690243044BDA6104E0034A56
:10153000D2698243014BDA6170470000001002401B
:1015400029B1064A92690243044B9A6104E0034AB6
:1015500092698243014B9A6170470000001002407B
:101560002DE9F04F91B00446894692460EA88B496A
:101570000FAB0AAACDE9001089498A4801F002FEA2
:101580008648008800F4807000287DD00A98FEF715
:10159000FAFF05464FF09D41FEF79EFE8249086026
:1015A0000B98FEF7F0FF05464FF09D41FEF794FEC5
:1015B0007E4908600C98FEF7E6FF05464FF09D4116
:1015C000FEF78AFE7A4908600D98FEF7DCFF0546B3
:1015D0004FF09D41FEF780FE764908607248016831
:1015E0004FF08040FEF746FE05907148016805986F
:1015F000FEF740FE83466D4801684FF04040FEF71D
:1016000039FE05906B4801680598FEF733FE594690
:101610000690FEF7D7FD0790FEF7F0FFCDE9080131
:1016200001F086F807464FF06632634BFEF739FF4C
:101630000546FEF7F6FF20605D4801684FF08040E8
:10164000FEF718FE02905A4801680298FEF712FE53
:101650008346564801684FF04040FEF70BFE02906B
:10166000524801680298FEF705FE59460390FEF7BE
:10167000FBFD80464FF07E51FEF7A4FD0746FEF7C6
:10168000BDFFCDE9060100E084E0474801684FF066
:101690008040FEF7EFFD0390444801680398FEF791
:1016A000E9FD8046424801684FF08040FEF7E2FDC8
:1016B0000390404801680398FEF7DCFD83464146ED
:1016C000FEF780FD0746FEF799FFCDE90401DDE94D
:1016D000062301F075FA4FF06632374BCDE9080169
:1016E000FEF7DFFE0546FEF79CFFC9F80000314813
:1016F00001680068FEF7BEFD04902D48016800688F
:10170000FEF7B8FD0290294801680068FEF7B2FDB7
:101710000190254801680068FEF7ACFD0090019932
:10172000FEF750FD83460299FEF79EFD0390049953
:10173000FEF79AFD0590FEF761FF05460E461D482F
:10174000016819480068FEF795FD04901848016883
:1017500016480068FEF78EFD03900499FEF732FDEF
:101760004FF080410590FEF785FD8346FEF746FF6A
:101770002A463346CDE9060101F022FA4FF06632DF
:101780000D4BCDE90801FEF78CFE0746FEF749FF39
:10179000CAF8000011B0BDE8F08F00002C04002052
:1017A00026040020200400203004002034040020FF
:1017B000380400203C04002066A64C40704710B559
:1017C00000F002F810BD00000CB500200190009060
:1017D0003348006840F480303149086000BF304829
:1017E000006800F4003000900198401C01900098BF
:1017F00018B90198B0F5A06FF1D12948006800F43C
:10180000003010B10120009001E00020009000980D
:10181000012843D12348006840F0100021490860A6
:101820000846006820F0030008600846006840F0A1
:10183000020008601A484068194948600846406834
:1018400048600846406840F4806048600846406848
:1018500020F47C1048600846406840F4E810486076
:101860000846006840F08070086000BF0C480068BF
:1018700000F000700028F9D00948406820F003000B
:10188000074948600846406840F00200486000BFD1
:101890000348406800F00C000828F9D10CBD000096
:1018A0000010024000200240042808D14FF0E0213F
:1018B000096941F004014FF0E022116107E04FF0A7
:1018C000E021096921F004014FF0E0221161704725
:1018D0007047000010B51348006840F0010011493E
:1018E000086008464068104908400E4948600846AC
:1018F00000680E4908400B4908600846006820F45B
:10190000802008600846406820F4FE0048604FF4DC
:101910001F008860FFF753FF4FF000600449086024
:1019200010BD0000001002400000FFF8FFFFF6FEAF
:1019300008ED00E07FB505460C4601210846FFF79B
:10194000EFFDADF80850ADF804400020ADF80A00F6
:10195000ADF8060001A94FF0804000F073F80122B5
:101960004121880700F064F80121880700F043F85E
:101970001C208DF8000000208DF8010003208DF858
:10198000020001208DF803006846FFF757FC7FBD79
:1019900010B50121880700F03AF8012804D1054A62
:1019A00005490648FFF7DCFD0121880700F020F813
:1019B00010BD0000080400200404002000040020E2
:1019C00010B50121084800F022F858B1012106485D
:1019D00000F00EF80548006808B9012000E000207A
:1019E0000249086010BD0000000400409401234239
:1019F000CA430282704721B1028842F0010202808C
:101A000004E002884FF6FE731A400280704730B53A
:101A10000246002000230024158A05EA0103958967
:101A200005EA010413B10CB1012000E0002030BD33
:101A30001AB183890B43838102E083898B438381BD
:101A400070470000002202881D4B98420ED01D4BAB
:101A500098420BD0B0F1804F08D01B4B984205D074
:101A60001A4B984202D01A4B984204D14FF68F730A
:101A70001A404B881A43174B984207D0164B98428E
:101A800004D04FF6FF431A40CB881A4302808B885C
:101A900083850B8803850A4B98420BD0094B9842EB
:101AA00008D00E4B984205D00D4B984202D00D4BFA
:101AB000984201D10B7A038601238382704700008C
:101AC000002C0140003401400004004000080040A8
:101AD000000C004000100040001400400040014095
:101AE000004401400048014010B540F225511D4816
:101AF00000F03EF810B31B4800F064F8C4B21A4876
:101B0000008800F40040C8B91748008800F48040FD
:101B100060B10A2C03D000201349088020E012484D
:101B2000008840F400401049088019E00D2C06D1CF
:101B30000D48008840F480400B49088010E00A48B6
:101B40000088C0F30D0009490C5407480088401C68
:101B50000549088008460088C72801DD0020088064
:101B600010BD000000380140840400209C040020C7
:101B700070B50246002400230025002040F66A16B6
:101B8000B14200D100BFC1F3421501F01F0301268D
:101B900006FA03F3012D02D19689334006E0022DA7
:101BA00002D1168A334001E0968A33400C12012696
:101BB00006FA04F41688344013B10CB1012000E099
:101BC000002070BD01468888C0F30800704700BF40
:101BD000FEE700002DE9F04105462C462021114882
:101BE000FFF772F8002619E0274607F08007802FDC
:101BF00004D180210B48FFF769F803E080210948F0
:101C0000FFF762F86006040E20210648FFF75EF831
:101C100020210448FFF758F8701CC6B2082EE3DBF9
:101C2000BDE8F0810008014010B50446FFF776F8E2
:101C30007820FFF7CFFFFFF795F80020FFF7CAFFE6
:101C4000FFF790F82046FFF7C5FFFFF78BF8FFF787
:101C500079F810BD10B50446FFF760F87820FFF75B
:101C6000B9FFFFF77FF84020FFF7B4FFFFF77AF8DE
:101C70002046FFF7AFFFFFF775F8FFF763F810BDD9
:101C80000FB4054B10B503A9044A029800F060F99F
:101C900010BC5DF814FB0000353A000880040020F9
:101CA0000FB4084B10B504A902AA039800F050F92C
:101CB000044602A9002000F0E2FC204610BC5DF8BA
:101CC00014FB00007F260008490050EAC12018BF1D
:101CD00004204A0D18BF40F0010040F2FF72B2EB41
:101CE000515F08BF40F00200012808BF052070477F
:101CF0002DE9F0414F1E00EBC7010446D1E9000178
:101D000015461E4637F006020DD02A463346FEF72A
:101D1000C8FB7F1E04EBC703D3E90023FEF71AFBC1
:101D200037F00602F1D1022F25D0042F13D0062F51
:101D300018BFBDE8F0812A463346FEF7B2FBD4E96E
:101D40000A23FEF707FB2A463346FEF7AAFBD4E92F
:101D50000823FEF7FFFA2A463346FEF7A2FBD4E932
:101D60000623FEF7F7FA2A463346FEF79AFBD4E934
:101D70000423FEF7EFFA2A463346FEF792FBD4E936
:101D80000223FEF7E7FA2A463346FEF78AFBD4E938
:101D90000023BDE8F041FEF7DDBA0122FEF7DDBD0C
:101DA000FEF7D8BA0022134610461146FEF766BD6C
:101DB000024A00201107FEF7D0BD000001FDFFFF21
:101DC00002E008C8121F08C1002AFAD17047704704
:101DD000002001E001C1121F002AFBD17047000062
:101DE0000149086070470000880400202DE9FF5F6A
:101DF000DDE90220010DDDF838B0024318D044F6C9
:101E00001050A1F2FF3141430D140F98012820D04A
:101E1000A5EB0B00401C5FEA000A4FF00004474EA0
:101E2000DFF81C91A046504616D5CAF1000728E0FD
:101E30000F98012443A2012808D0002100980F9B8D
:101E4000C0E90021C0E90243BDE8FF9F6FEA0B0132
:101E5000F4E7CBF10000DEE7074612E0F80707D011
:101E60002246334640464946FEF71BFB80468946DC
:101E70002246334610461946FEF713FB04460E462B
:101E80007F10002FEAD1DDE90201BAF1000F4246CE
:101E90004B4602DAFEF705FB01E0FEF7EFFC0446D5
:101EA0000E460022284BFEF787FD03D84FF0FF3087
:101EB000014607E00022254B20463146FEF74AFA4C
:101EC000FEF762FD102409E0002C0ADB0A22002341
:101ED000FEF7EEFB019B30321A55641E50EA0102F8
:101EE000F2D1641C019AC4F1110314440F9A012A1F
:101EF00003D0012208430DD10AE0084304D000209A
:101F00004FF0110B0F9080E7A3EB0B056D1E0DE05A
:101F10005B4504DD4FF0000205F1010504E003DA42
:101F20004FF00002A5F10105002AECD000980F99AE
:101F3000C0E90231C0E9004586E700000000244006
:101F40000000F03F300000000000F0430000E03FE0
:101F50002DE9FF4F95B09B468946064600250FE2C6
:101F6000252877D100242746F84A0121059400E06E
:101F7000044316F8013F203B01FA03F01042F7D169
:101F800030782A2811D06FF02F033078A0F130027A
:101F9000092A16D8059A44F0020402EB820203EBE8
:101FA00042021044761C0590EFE759F8042B059285
:101FB000002A03DA504244F40054059044F002042D
:101FC000761C30782E2816D116F8010F44F0040440
:101FD0002A280DD06FF02F023078A0F13003092BA2
:101FE00009D807EB870302EB4303C718761CF3E716
:101FF00059F8047B761C30786C280FD006DC4C280E
:1020000017D068280DD06A2814D104E0742810D0A5
:102010007A280FD10DE044F400140AE044F480144F
:1020200001E044F440147278824202D104F5801435
:10203000761C761C307866280BD013DC582877D0B5
:1020400009DC002875D04528F6D04628F4D047286A
:102050001AD19DE118E0632835D0642879D065282D
:1020600012D195E1702873D008DC6728F1D0692877
:102070006FD06E280DD06F2806D1B5E073282CD014
:10208000752875D0782874D05A46179990476D1CDA
:1020900075E1C4F30250022809D003280DD0D9F805
:1020A000001004280DD00D6009F1040967E1D9F88A
:1020B0000010EA17C1E90052F6E7D9F800100D80C8
:1020C000F2E70D70F0E719F8041B8DF800100020FE
:1020D0008DF80100EA46012003E059F804AB4FF007
:1020E000FF3061074FF0000102D40DE008F101015B
:1020F0008846B9420FDA8045F8DB1AF80810002943
:10210000F4D108E008F1010188468142FADB1AF8AF
:1021100008100029F6D105985B46A0EB0807214678
:102120003846179A00F094FA284400EB080507E0B7
:102130004DE029E10DE01AF8010B5A461799904736
:10214000B8F10108F7D25B4621463846179A13E1E9
:1021500042E00A220092C4F302524FF0000A022A1F
:1021600008D059F804CB032A4FEAEC710AD00DE0ED
:1021700029E02AE009F1070121F00702F2E802C193
:10218000914609E00FFA8CFC4FEAEC71042A03D166
:102190004FFA8CFC4FEAEC71002907DA0A4600215D
:1021A000DCF1000C61EB02012D2202E0220504D5D6
:1021B0002B228DF80420012203E0E20701D0202227
:1021C000F7E7904659E00A2102E010220DE01021C5
:1021D0004FF0000A00910BE010224FF0000A44F08B
:1021E00004040827009203E008224FF0000A00923E
:1021F000C4F30252022A05D059F804CB0021032A65
:1022000008D009E009F1070121F00702F2E802C154
:10221000914605E01FFA8CFC042A01D10CF0FF0C5A
:102220004FF00008220728D5702806D0009B83F0C5
:10223000100353EA0A0305D00EE040228DF8042073
:10224000012208E05CEA010206D030228DF8042069
:102250008DF8050002229046009B83F0080353EAA4
:102260000A030AD15CEA010201D1620705D53022D6
:102270008DF804204FF001087F1E582804D034A0A8
:1022800003900EA802900DE036A0F9E75346604691
:10229000009AFEF70DFA84460398825C0298401E6D
:1022A000029002705CEA0100F0D1029806A9081AB7
:1022B00000F1200A600702D524F4803400E00127F1
:1022C000574502DDA7EB0A0000E0002000EB0A0101
:1022D000009005984144401A0590E00306D45B46FF
:1022E0002146179A059800F0B3F90544002706E047
:1022F00001A85A46C05D179990476D1C7F1C474541
:10230000F6DBE0030CD55B462146179A059800F0F2
:102310009FF9054404E030205A46179990476D1CF8
:102320000099481E00900029F5DC08E00298029907
:102330005A460078491C0291179990476D1CBAF1D2
:102340000001AAF1010AF1DC65E1000009280100A1
:10235000303132333435363738396162636465661B
:1023600000000000303132333435363738394142DD
:10237000434445460000000000F058F90544761C2F
:10238000307800287FF4ECAD19B02846BDE8F08F16
:10239000620700D4062709F1070222F0070CFCE8C7
:1023A0000223E14603F000485FEA080C02D00FF276
:1023B000702C0DE05FEA045C02D50FF2682C07E098
:1023C0005FEAC47C02D00FF2602C01E0AFF2700C27
:1023D0004FF0FF3823F00043CDF850C065280CD0F3
:1023E00006DC452809D046281DD047283DD13DE0D0
:1023F000662818D067287ED138E00021112F01DB34
:10240000112000E0781CCDE9000106A90EA8FFF715
:10241000EDFCDDE90F010E9A03910021009207F116
:10242000010A04914DE04FF000400097CDE9011002
:1024300006A90EA8FFF7DAFCDDE90F0203920E9B56
:1024400011990022DDF80CA00093049211B9791CB7
:1024500000EB010AB7EB0A0004D4C0F1FF3007F12A
:10246000010A0490AAEB0700019044E0012F00DA72
:1024700001270021112F01DD112000E03846CDE9B0
:10248000000106A90EA8FFF7B1FCDDE90F010E9AC5
:102490000391002104910092BA4621070CD40399BC
:1024A000514500DA8A46BAF1010F05DD009AAAF11A
:1024B0000101515C302908D0B84202DA10F1040F52
:1024C00006DA0121CDE9011015E0AAF10101E9E7E1
:1024D000002805DC049901440491AAEB000102E004
:1024E000411C514500DD8A460499401A401C019068
:1024F0004FF000400290200704D40198504501DBC2
:10250000CDF8048000208DF84F0002980DF14F07A0
:10251000B0F1004F25D02B200E9002984FF002080A
:1025200000280CDA404202902D200E9007E00A218C
:102530000298FEF7A7F83031029007F8011DB8F1B4
:102540000001A8F10108F2DC02980028EFD1791E01
:102550000E980870307800F0200040F0450007F831
:10256000020D12A8C01B00F107081498007800B1F2
:10257000012000EB0A01019801EBE071059841444C
:10258000401A401E0590E00306D45B462146179A88
:10259000059800F05DF805441498007818B15A4683
:1025A000179990476D1CE00324D55B462146179A86
:1025B000059800F04DF805441CE00498002807DB5E
:1025C000DDE90301884203DD0098405C179901E0D2
:1025D000179930205A469047049805F10105401C90
:1025E00004900198401E019004D12E205A4617995C
:1025F00090476D1CBAF10001AAF1010ADDDC05E08B
:1026000017F8010B5A46179990476D1CB8F1000155
:10261000A8F10108F4DC5B462146179A0598ABE661
:102620002D0000002B000000200000002DE9F041EB
:10263000044600251E461746880404D405E03946A2
:102640002020B0476D1C641EF9D52846BDE8F081F6
:102650002DE9F041044600251E469046C80301D5E9
:10266000302700E02027880404D505E0414638469D
:10267000B0476D1C641EF9D52846BDE8F0810A6894
:10268000531C0B60107070472DE9FE4F06460F4635
:102690000025684601F0DCF9002442E056F82400E9
:1026A00057F82410A0EB010ABAF1000F01DB5146E4
:1026B00001E0CAF100010846FDF765FF83464FF0CF
:1026C0008F41FDF709FE80465DF824000021FDF7EB
:1026D000C5FF16D05DF824104046FDF7FDFD82468B
:1026E0004FF07E51FDF7C0FD814629F0004A0F48AA
:1026F000416A5046FDF7BCFF12D20120A0400543BD
:102700000EE00A48C1694046FDF7A8FF05D3074817
:10271000016A4046FDF7ACFF02D20120A04005430C
:10272000641C032CBADB2846BDE8FE8F685C0008F9
:102730002DE9F04D8D4F21F0004A86B005460C463C
:10274000BA452ADBAAEB070028430AD0884882450D
:1027500001DC1AD1CDB106B02846BDE8F04DFFF737
:102760001CBB844A844B2846FDF79BFE07460E4659
:10277000824A834B28462146FDF793FE06B03A462F
:102780003346BDE8F04DFDF7E5BD0120FFF728FB1E
:1027900006B0BDE8F04DFFF705BB7A48824542DA46
:1027A000BAF1795F0BDA2846FFF78EFA042808BFE2
:1027B000FFF7FEFA284606B02146BDE8F08D2A460E
:1027C0000B461046FDF76DFE834602466E480E46E8
:1027D0000B4606217844FFF78BFA5A463346FDF73D
:1027E00060FE804669488A465A463346042178444A
:1027F000FFF77EFA5A463346FDF753FE00223B466A
:10280000FDF7A8FD02460B4640465146FEF736F856
:102810002A462346FDF745FE06B02A462346BDE874
:10282000F04DFDF797BD284624F0004100223D46BB
:102830003B46FDF733FE4FF0FF32FEF78EF80646BB
:10284000024653480F460B4606217844FFF750FADC
:1028500032463B46FDF725FECDE900014D483246A4
:102860003B4604217844FFF743FA32463B46FDF7E6
:1028700018FE00222B46FDF76DFD8346029130467F
:10288000394602F0ABFD804643480D46504517DC03
:10289000DDE900015A46029BFDF7F0FF42462B4658
:1028A000FDF7FFFD42462B46FDF754FD0122FEF7E2
:1028B00054F8304A304BFDF7EEFD304A304B4CE0D7
:1028C0004FF0000A52460B464046FDF743FDCDE966
:1028D000031052462B4610461946FDF7E2FD3246DC
:1028E0003B46FDF7DBFDDDE90332FDF7C7FF06469A
:1028F0000F46DDE900015A46029BFDF7BFFF834604
:102900000091012230463946FEF727F8194A1A4B42
:10291000FDF7C4FD06460F46012240462946FEF754
:102920001CF85A46009BFDF7BCFD32463B46FDF7BE
:10293000B2FD06460F46012250462946FEF70DF825
:102940000E4DDFF858802A464346FDF7A7FD324674
:102950003B46FDF7A3FD2A464346FDF79FFD002CAD
:10296000D8BF81F0004106B0BDE8F08D0000F03F17
:102970000000F07F075C143326A6913C182D4454C8
:10298000FB21F93F0000E03FB0400000C6400000DE
:102990003A400000504000003333EF3FFB21E93F55
:1029A0002DE9F84F04460D4621F00040009173498F
:1029B000814211DC7249884201DC06D12CB12046EB
:1029C0002946BDE8F84FFFF7E8B96E48002DCCBFA7
:1029D0006D496E49BDE8F88F6D49814211DD6D4941
:1029E0008142D8BF4FF0FF366DDD20462946FFF704
:1029F0006BF9042808BFFFF7DBF920462946BDE83C
:102A0000F88F6549654F25F00045814233DD644903
:102A1000814219DD002632464FF080432046294688
:102A2000FDF798FC80468A46012220462946FDF79C
:102A300094FF00223B46FDF72EFD42465346FDF72C
:102A40001DFF04460D463EE001260022BA463B46E5
:102A500020462946FDF77EFC80460F46002253465D
:102A600020462946FDF717FD42463B46FDF706FF87
:102A700004460D4627E04B4981421BDDDFF828A1C3
:102A800002260022534620462946FDF70AFD002271
:102A90003B46FDF75FFC80460F460022534620462A
:102AA0002946FDF7F8FC42463B46FDF7E7FE0446A3
:102AB0000D4608E0032622462B4600203B49FDF741
:102AC000DDFE04460D4622462B4610461946FDF70C
:102AD000E8FC8B46824602460B46FDF7E2FC0746C1
:102AE0000246334888460B4606217844FFF700F932
:102AF00052465B46FDF7D5FC82462E488B463A4649
:102B0000434605217844FFF7F3F83A464346FDF77C
:102B1000C8FC02460B46002E504659460CDAFDF71B
:102B200019FC22462B46FDF7BCFC01B022462B4681
:102B3000BDE8F04FFDF7B2BCFDF70CFC22462B467A
:102B4000FDF7AFFC1C4A7A4402EBC603D3E900232D
:102B5000FDF7A1FC22462B46FDF79DFC174A7A445F
:102B600002EBC603D3E90023FDF798FC009A002A84
:102B7000B8BF81F00041BDE8F88F000000001044AC
:102B80000000F07F182D4454FB21F93FFB21F9BFD1
:102B90000000DC3F0000203E0000F33F0000F03F5B
:102BA0000000E63F008003400000F83F0000F0BF57
:102BB000523E0000103E0000AE3D0000763D000099
:102BC0002DE9F04D9446CCF1000423F000464CEA88
:102BD0000404524F46EAD4749A46884621F00042D3
:102BE000BC4206D8454240EA050442EAD474BC42DD
:102BF00004D9BDE8F04D6246FFF7D2B8AAF14055BE
:102C0000A5F17F6555EA0C040BD0022404EAAA74EE
:102C1000434DDFF810E144EAD87452EA000B04D0C7
:102C20000CE0BDE8F04DFFF7BBBE002C14BF012C3B
:102C3000BDE8F08D022C30D0032C32D056EA0C0BBC
:102C40000AD0BE4220D1BA4209D126F0804622F0F5
:102C500080423346114617E000291ADB25E0DFF8F1
:102C6000C8B0FB44002C04BFDBE90001BDE8F08DD7
:102C7000012C02BFDBE9000181F00041BDE8F08DCD
:102C8000022C0AD0032C0CD0BA4212D1B8F1000F9A
:102C90000BDA23482549BDE8F08D28462449BDE8D4
:102CA000F08D28467146BDE8F08D1D482149BDE8EC
:102CB000F08D921B12153C2AC4BF19481D490EDC29
:102CC000BAF1000FBEBF12F13C0F0020014606DB37
:102CD0006246FDF7D3FD21F00041FFF761FE002CB5
:102CE00008BFBDE8F08D012C04BF81F00041BDE8B4
:102CF000F08D114A114B022C07D0FDF7CCFB2A4670
:102D0000BDE8F04D0A4BFDF7C6BBFDF7C4FB2A46F4
:102D1000BDE8F04D064BFDF7C1BB00000000F07FA1
:102D2000182D4454FB2109C00A3D0000FB21F9BFC6
:102D3000FB210940FB21F93F075C143326A6A13C87
:102D40002DE9F0410446E07800F0C006E07800F09C
:102D50003F05607800F0010098B1EF102846E917B0
:102D600005EB5171C910A5EBC101491C01F0FF0829
:102D70000B48006820B10A4841460268384690472F
:102D800000BF607800F0080030B10548406818B115
:102D9000B011034A516888470020BDE8F081000067
:102DA0008C04002010B56FF00400FEF77DFD0A488A
:102DB00000680A49B0FBF1F009490870084600783C
:102DC00000EB4001C1EBC0104FF6FF7101EAC000FB
:102DD0000449088010BD00000C04002000127A0095
:102DE0007C0400207E0400200146114A12884A43D8
:102DF0004FF0E0235A6100229A611A46126942F0AC
:102E000001021A6100BF4FF0E022106900F00102D8
:102E10001AB100F48032002AF5D04FF0E022126996
:102E200022F001024FF0E0231A6100229A617047FC
:102E30007E0400200146114A12784A434FF0E023F5
:102E40005A6100229A611A46126942F001021A611F
:102E500000BF4FF0E022106900F001021AB100F447
:102E60008032002AF5D04FF0E022126922F00102F0
:102E70004FF0E0231A6100229A6170477C04002021
:102E800038B5044664B120208DF8000028208DF864
:102E9000010030208DF8020038208DF8030004E096
:102EA000A32204216846FDF76EF96A46042140F624
:102EB0009E2002F0ABF901F09BFD38BD3EB5044603
:102EC00002208DF80000CA208DF80100E3208DF863
:102ED000020009208DF803006A460421682002F0F0
:102EE00095F9A3208DF8000004F0400048B1C020FF
:102EF0008DF80100C8208DF80200C2208DF8030073
:102F000006E0A3208DF801008DF802008DF8030083
:102F100004F4C07048B1C4208DF80400CC208DF8B2
:102F20000500C6208DF8060006E0A3208DF80400F9
:102F30008DF805008DF80600A3208DF807008DF8A8
:102F400008008DF809006A460A2140F6A72002F021
:102F50005DF904F0030018B120208DF8000002E0B4
:102F6000D8208DF800006A46012140F6B62002F014
:102F70004DF904F0200018B1012000F0ADF802E096
:102F8000002000F0A9F804F4C07008B304F48070C5
:102F900060B1B2208DF800008B208DF80100B620C2
:102FA0008DF802009B208DF803000BE0B0208DF817
:102FB000000080208DF80100B4208DF802009020E0
:102FC0008DF803006A46042140F6A22002F01EF9A3
:102FD00004F0010020B3F8208DF800006A460121BA
:102FE0004FF40B6002F012F9FA21072000F02CFCDC
:102FF000072000F0F3FB012000F013FC642000F038
:10300000F3FC4FF4FA7000F002FDC821304800F0E4
:10301000A3FB282000F0BCFB0A2000F0CCFB08E05A
:10302000D8208DF800006A4601214FF40B6002F0B1
:10303000EDF804F0020018B1D9208DF8000002E08C
:10304000D8208DF800006A46012140F23D7002F060
:10305000DDF804F0040018B1012000F069F802E086
:10306000002000F065F804F0100018B10120FFF70F
:1030700007FF02E00020FFF703FF44F008001549B6
:10308000488101F0B5FC00201249887304F040002B
:1030900018B10846807B801D887304F4C07020B18D
:1030A0000C48807B801D0B49887304F0140020B10C
:1030B0000848807B10300749887304F0030020B172
:1030C0000448807B001D0349887300203EBD00003A
:1030D00009E3CA028C0400203EB504466CB10EA17F
:1030E000D1E900208968CDE9002002916A460921D2
:1030F0004FF4976002F08AF83EBD0AA2D2E90010B0
:103100009268CDE9010200916A4609214FF4976067
:1031100002F07CF8F0E70000B8AAB38DB4980D3542
:103120005D000000B8AAAAAAB088C3C5C700000005
:1031300038B5044664B1C0208DF80000C2208DF877
:103140000100C4208DF80200C6208DF8030004E0C1
:103150008B2204216846FDF716F86A46042140F6E2
:10316000982002F053F801F043FC38BD10B5C82395
:103170004FF48062024940F6F63001F0CDFA10BDFE
:10318000905C00082DE9F04F8DB007468846154643
:103190009946DDE9166B0024002030806B49887B5E
:1031A0005A4605A901F084FB18B1601E0DB0BDE8B8
:1031B000F08F6648807A00F01400002867D09DF8F0
:1031C000140000069DF8151040EA01409DF8161005
:1031D00040EA01209DF81710084328609DF8180068
:1031E00000069DF8191040EA01409DF81A1040EAC7
:1031F00001209DF81B10084368609DF81C00000624
:103200009DF81D1040EA01409DF81E1040EA012083
:103210009DF81F100843A8609DF8200000069DF847
:10322000211040EA01409DF8221040EA01209DF85B
:1032300023100843E86004F11000C4B228680014A9
:103240000190686800140290A86800140390E86870
:103250000014049001984043029901FB0100039976
:1032600001FB0100049901FB010ABAF1706F02DB56
:10327000BAF1885F05DD01F0BBFB00203080401E05
:1032800094E7B6F9000040F48070308000BF2F480A
:10329000807A00F0400020B305A9601C085C095D3D
:1032A00040EA012000B2A8F8000005A9E01C095C72
:1032B00005AAA01C105C41EA002000B2A8F8020098
:1032C00005A9601D095C201D105C41EA002000B2C8
:1032D000A8F80400A01DC4B2B6F9000040F0080030
:1032E00030801A48408900F4C07008B305A9601CFA
:1032F000085C095D40EA012000B2388005A9E01CA5
:10330000095C05AAA01C105C41EA002000B278808C
:1033100005A9601D095C201D105C41EA002000B277
:10332000B880A01DC4B2B6F9000040F07000308033
:103330000648807A00F0030018B105A90819FFF7C4
:10334000FFFC484601F0A2FF00202FE78C0400207C
:1033500070B588B0064601A801F032F8BDF8040047
:103360000021C90341EA5045C4034448007A00F0F3
:10337000030056F8200005904048007A00F0040051
:1033800010B10598404205903C48007AC0F3C10056
:1033900056F8200006903948007A00F0200010B15D
:1033A0000698404206903548007AC0F3811056F8DE
:1033B000200007903148008900F4807010B1079810
:1033C000404207900598C117A0FB042301FB04317C
:1033D00000FB0510810041EA927005900698C11724
:1033E000A0FB042301FB043100FB0510810041EA2E
:1033F000927006900798C117A0FB042301FB0431CB
:1034000000FB0510810041EA927007900598000EBC
:103410008DF808000598000C8DF809000598000A41
:103420008DF80A000598C0B28DF80B000698000EC2
:103430008DF80C000698000C8DF80D000698000A17
:103440008DF80E000698C0B28DF80F000798000E98
:103450008DF810000798000C8DF811000798000AED
:103460008DF812000798C0B28DF8130002AA0C2143
:103470004FF4257001F0CAFE08B070BD8C04002026
:1034800030B585B0044616A207CA02AB07C3C82CE4
:1034900003DD4FF0FF3005B030BDC82090FBF4F0E5
:1034A000401E85B2280A8DF80000E8B28DF80100B0
:1034B0006A46022140F2162001F0A8FE10B14FF03A
:1034C000FF30E8E702AA0C2140F6C12001F09EFE81
:1034D00010B14FF0FF30DEE7044884810020DAE7C6
:1034E000FEF2ABC4AAF1DFDFBBAFDFDF8C0400204C
:1034F0001FB504464848007A00F0030054F8200045
:1035000001904548007A00F0040010B10198404253
:1035100001904148007AC0F3C10054F820000290A5
:103520003D48007A00F0200010B10298404202901D
:103530003948007AC0F3811054F8200003903648CF
:10354000008900F4807010B1039840420390334921
:10355000019880FB0101800F40EA810001902F4912
:10356000029880FB0110820042EA917002902B4980
:10357000039880FB0110820042EA91700390019849
:10358000000E8DF800000198000C8DF801000198E4
:10359000000A8DF802000198C0B28DF803006A4657
:1035A00004214FF4747001F031FE18B14FF0FF3078
:1035B00004B010BD0298000E8DF800000298000CB7
:1035C0008DF801000298000A8DF802000298C0B23E
:1035D0008DF803006A4604214FF4757001F016FE61
:1035E00010B14FF0FF30E3E70398000E8DF80000B4
:1035F0000398000C8DF801000398000A8DF8020072
:103600000398C0B28DF803006A4604214FF4767027
:1036100001F0FCFDCCE700008C04002009E3CA02A5
:1036200010B586B0044647A00068039046A0006825
:10363000029046A00068019045A00068009004F048
:10364000030003A9085C8DF8140003A8C4F3C101AA
:10365000405C8DF8150003A8C4F38111405C8DF81F
:10366000160004F0030002A9085C8DF8100002A8FF
:10367000C4F3C101405C8DF8110002A8C4F38111AC
:10368000405C8DF8120005AA032140F2264001F0AB
:10369000BDFD18B14FF0FF3006B010BD04AA0321E4
:1036A00040F22A4001F0B2FD10B14FF0FF30F3E7D5
:1036B000019805900098049004F0040058B19DF81A
:1036C000140040F001008DF814009DF8100040F047
:1036D00001008DF8100004F0200058B19DF815008D
:1036E00040F001008DF815009DF8110040F0010038
:1036F0008DF8110004F4807058B19DF8160040F068
:1037000001008DF816009DF8120040F001008DF8C0
:10371000120005AA03214FF4886001F077FD10B173
:103720004FF0FF30B8E704AA032140F2314001F026
:103730006DFD10B14FF0FF30AEE706480481002068
:10374000AAE700004CCD6C000CC92C003656760060
:10375000264666008C040020F8B505460E464FF458
:103760007A7095FBF0F000FB06F4200E8DF8000057
:10377000200C8DF80100200A8DF80200E0B28DF8CF
:1037800003006A4604214FF4AE7001F03FFDF8BD1E
:1037900038B50446052094FBF0F084B220128DF871
:1037A0000000E0B28DF801006A4602214FF4AD70CE
:1037B00001F02CFD38BD38B50446052094FBF0F02F
:1037C00084B220128DF80000E0B28DF801006A4644
:1037D00002214FF4AC7001F019FD38BD38B5044634
:1037E0000020009004F0010020B19DF8000040F09E
:1037F0003000009004F0020020B19DF8000040F07D
:103800000C00009004F0040020B19DF8000040F08E
:10381000030000906A4601214FF4A47001F0F6FC09
:1038200038BD38B50446012C01DA012402E0042C2D
:1038300000DD0424601EC0B200906A46012140F2FF
:103840004F1001F0E3FC38BD2DE9FC4706460F465A
:1038500006F0070010B1B7F5C86F03DD4FF0FF3079
:10386000BDE8FC873846FCF797FE81465949FCF7CE
:1038700033FD8046684600F07DFD9DF8000002287B
:1038800006D0042816D0082826D0102848D135E0C4
:103890004FF08D414046FCF7EDFC8146FCF79AFE67
:1038A00084B24D494046FCF7E5FC8146FCF792FEA8
:1038B00085B238E04FF08C414046FCF7DBFC814696
:1038C000FCF788FE84B245494046FCF7D3FC8146AC
:1038D000FCF780FE85B226E04FF08B414046FCF7B6
:1038E000C9FC8146FCF776FE84B23D494046FCF7B0
:1038F000C1FC8146FCF76EFE85B214E04FF08A41B0
:103900004046FCF7B7FC8146FCF764FE84B23549BB
:103910004046FCF7AFFC8146FCF75CFE85B202E056
:103920004FF0FF309CE700BF20128DF80400E0B29A
:103930008DF8050028128DF80600E8B28DF8070012
:1039400006F00100A0B101AA02214FF4EA7001F0D3
:103950005DFC10B14FF0FF3082E70DF1060202214D
:103960004FF4927001F052FC10B14FF0FF3077E746
:1039700006F00200A0B101AA02214FF4EC7001F0A0
:1039800045FC10B14FF0FF306AE70DF1060202214D
:103990004FF4947001F03AFC10B14FF0FF305FE744
:1039A00006F00400A0B101AA02214FF4EE7001F06C
:1039B0002DFC10B14FF0FF3052E70DF1060202214D
:1039C0004FF4967001F022FC10B14FF0FF3047E742
:1039D000002045E700004843000040460000C04585
:1039E000000040450000C04438B50446052094FB63
:1039F000F0F085B228128DF80000E8B28DF80100D1
:103A00006A4602214FF4EF7001F000FC38BD38B572
:103A10000446052094FBF0F085B228128DF80000D2
:103A2000E8B28DF801006A4602214FF4ED7001F012
:103A3000EDFB38BD00BF054A128802F04002002AA3
:103A4000F9D0C2B2014B1B1D1A80704700380140EB
:103A50007CB5054628494968087801AB04220D2148
:103A600000F010FB08B107207CBD9DF80700C0F3F3
:103A700001109DF8041001F0E00140EAE1008DF82A
:103A800000009DF80700C0F381009DF8051001F0CB
:103A9000E00140EAE1008DF801009DF8070000F028
:103AA00003009DF8061001F0E00140EAE1008DF806
:103AB000020000241CE01DF8040018B9002045F89D
:103AC000240013E00D4845F8240006E055F82400D2
:103AD0000B49FCF7CFFB45F824001DF80400401EFD
:103AE000C0B20DF804000028F0D100BF601CC4B2C1
:103AF000032CE0DB0020B7E7500400207B14AE3E2F
:103B00001D5A843F2DE9F04F87B005460C4691467B
:103B100001208DF8100000208DF81100FE4A126877
:103B2000917CFD4A5268107804AB022200F0E5FA5D
:103B300020B14FF0FF3007B0BDE8F08FC820FFF78D
:103B400053F900208DF81000F34A1268D17BF24A35
:103B50005268107804AB012200F0CFFA10B14FF098
:103B6000FF30E8E7EC4A12685179EB4A5268107866
:103B700004AB012200F0C1FA10B14FF0FF30DAE7D8
:103B8000E54A1268917CE44A5268107804AB01223D
:103B900000F0B3FA10B14FF0FF30CCE7DE4A126804
:103BA000D17DDD4A5268107804AB012200F0A5FAFD
:103BB00010B14FF0FF30BEE7D74A12681179D64AEC
:103BC0005268107804AB012200F097FA10B14FF060
:103BD000FF30B0E70C208DF81000CF4A1268117941
:103BE000CD4A5268107804AB012200F086FA10B179
:103BF0004FF0FF309FE70F20FFF7F6F8C648806AC6
:103C0000407A8DF81000C44A12689178C24A52680E
:103C1000107804AB012200F070FA10B14FF0FF30C1
:103C200089E7BD48806A007A8DF81000BA4A1268A8
:103C30005178B94A5268107804AB012200F05DFA5D
:103C400010B14FF0FF3076E7B9F1000F07D0B2485E
:103C5000806A807A40F0E0008DF8100004E0AE4801
:103C6000806A807A8DF81000AB4A12689179AA4A6E
:103C70005268107804AB012200F03FFA10B14FF007
:103C8000FF3058E7B9F1000F07D0A348806AC07A27
:103C900040F0E0008DF8100003E0A048C07A8DF8F5
:103CA00010009D4A1268D1799B4A5268107804AB83
:103CB000012200F022FA10B14FF0FF303BE7B9F1DA
:103CC000000F02D0C820FFF78FF840208DF81000B9
:103CD000914A12681179904A5268107804AB012217
:103CE00000F00BFA10B14FF0FF3024E778208DF888
:103CF0001000894A12685179874A5268107804ABDB
:103D0000012200F0FAF910B14FF0FF3013E78349B8
:103D10008889FFF769F800208DF810007E4A126844
:103D200051797D4A5268107804AB012200F0E5F920
:103D300010B14FF0FF30FEE6774A1268917A764A6A
:103D40005268107804AB022200F09CF910B14FF0D9
:103D5000FF30F0E69DF811009DF8101040EA012BAD
:103D60000C209BFBF0F0C6B20020A86068602860C1
:103D7000A06060602060824665E0674A1268D17A80
:103D8000654A5268107804AB0C2200F07BF910B140
:103D90004FF0FF30CFE69DF811009DF8101040EA7B
:103DA000012000B2ADF808009DF813009DF8121034
:103DB00040EA012000B2ADF80A009DF815009DF818
:103DC000141040EA012000B2ADF80C00BDF9081053
:103DD000206808442060BDF90A10606808446060EB
:103DE000BDF90C10A0680844A0609DF817009DF86C
:103DF000161040EA012000B2ADF800009DF819004D
:103E00009DF8181040EA012000B2ADF802009DF8BC
:103E10001B009DF81A1040EA012000B2ADF8040022
:103E2000BDF90010286808442860BDF902106868D0
:103E300008446860BDF90410A8680844A8600AF145
:103E4000010000F0FF0AB24597DB3448D0F800C00B
:103E50002868C117090441EA10410704624600239B
:103E60003846FCF75FF932460023CDE90201FCF742
:103E700059F928602948D0F800C06868C1170904BA
:103E800041EA10410704624600233846FCF74AF92C
:103E900032460023CDE90201FCF744F968601F486F
:103EA000D0F800C0A868C117090441EA104107040E
:103EB000624600233846FCF735F932460023CDE947
:103EC0000201FCF72FF9A8601448D0F804C021685B
:103ED000C817000440EA11480F0462460023384620
:103EE0004146FCF71FF932460023CDE90201FCF7F9
:103EF00019F920600948D0F804C06068C1170904A6
:103F000041EA10410704624600233846FCF70AF9EB
:103F10003246002304E0000050040020685C0008E2
:103F2000CDE90201FCF7FEF860601148D0F804C04A
:103F3000A068C117090441EA104107046246002342
:103F40003846FCF7EFF832460023CDE90201FCF7D2
:103F5000E9F8A060A068002804DDA068A0F5803022
:103F6000A06003E0A06800F58030A0600020E2E5DA
:103F7000685C00082DE9FC5F06460F4600253D49B8
:103F80004968087801AB03220D2100F07BF810B1DD
:103F90000720BDE8FC9F9DF8040000F01F008DF88D
:103FA00004009DF8050000F01F008DF805009DF845
:103FB000060000F01F008DF80600002456E056F8B9
:103FC000240057F82410A0EB010BBBF1000F01DB1C
:103FD000594601E0CBF100010846FCF7D4FA4FF056
:103FE0008F410090FCF778F9814601A8005D68B325
:103FF00021490868FCF7D0FA834659461F48FCF768
:104000006BF9804604E01E494046FCF733F98046D0
:1040100001A8005D401EC0B201A908550028F2D1D8
:1040200041464846FCF758F983464FF07E51FCF76D
:104030001BF982462AF0004B0F4881695846FCF76D
:1040400017FB12D20120A04005430EE00A48016987
:104050004846FCF703FB05D3074841694846FCF78F
:1040600007FB02D20120A0400543641C032CA6DB01
:1040700028468EE750040020685C000800B04C45DC
:1040800054E3853F2DE9F04106460F4614461D4690
:10409000FCF74EFF10B90120BDE8F0817106080E53
:1040A000FCF70EFFFCF79CFF18B9FCF775FF012029
:1040B000F2E73846FCF704FFFCF792FFFCF738FF05
:1040C000012101EB4601C8B2FCF7FAFEFCF788FFBC
:1040D0000DE0012C04D10020FCF7BCFE287003E0A9
:1040E0000120FCF7B7FE28706D1C601EC4B2002CC6
:1040F000EFD1FCF751FF0020CEE72DE9F041054656
:104100000E4617469846FCF713FF10B90120BDE88C
:10411000F0816906080EFCF7D3FEFCF761FF18B9C1
:10412000FCF73AFF0120F2E73046FCF7C9FEFCF746
:1041300057FF00240BE018F80400FCF7C1FEFCF761
:104140004FFF18B9FCF728FF0020E0E7641CBC42D1
:10415000F1DBFCF721FF0020D9E770B505462846C2
:1041600000F00FF80446E81C00F00BF844EAC00029
:1041700084B2A81D00F005F844EA801084B22046FD
:1041800070BD014691F90020002A01DD00201EE0EB
:1041900091F90020002A01DA042018E091F90120A9
:1041A000002A01DD012012E091F90120002A01DA44
:1041B00005200CE091F90220002A01DD022006E032
:1041C00091F90220002A01DA062000E0072070475A
:1041D00086B0FEF7E7FDFDF789F8FCF7C3FFFDF7B2
:1041E00065F8FCF7F7FDFCF7D9FFFCF79DFC40F202
:1041F000CF2140F2CF70FDF79DFB5EE02F480068B5
:10420000FCF7FCF9044622460B462DA101A8FDF758
:1042100047FD002301AA19461846FDF757F92B4818
:104220000068FCF7EBF9044622460B4628A101A8DA
:10423000FDF736FD002301AA01211846FDF746F9D6
:1042400026480068FCF7DAF9044622460B4624A10A
:1042500001A8FDF725FD002301AA02211846FDF75C
:1042600035F92248B0F9022021A101A8FDF718FD77
:10427000002301AA03211846FDF728F91F48B0F9C9
:1042800002201BA101A8FDF70BFD002301AA0321B9
:104290001846FDF71BF95020FEF7A6FD4FF400511C
:1042A0001748FCF711FD5020FEF79EFD4FF400511A
:1042B0001348FCF70BFDFCF7F9FF9FE70004002013
:1042C00050697463683A252E3266000004040020A9
:1042D000526F6C6C203A252E3266000008040020D4
:1042E00059617720203A252E3266000020040020F4
:1042F0006779726F203A25640000000026040020D0
:104300000010014070B50446002624F0010418484E
:1043100090F8240008B1002070BD1548807A10B9CB
:104320004FF0FF30F8E71248057C807A20401049B2
:1043300008740846007CA04202D04FF0FF3600E02F
:10434000002614B90A48007D18B1012000F0FEFFD4
:1043500002E0002000F0FAFF3CB100F049FB20B180
:10436000034805744FF0FF30D6E73046D4E700002D
:104370005004002001461148407A30B1012807D08E
:10438000022808D003280CD108E0022008700BE0B6
:104390000420087008E00820087005E0102008706C
:1043A00002E04FF0FF30704700BF0448C07C18B1F6
:1043B00008784006000E08700020F4E75004002042
:1043C00001461348407A30B1012808D002280AD0AB
:1043D000032810D10BE04FF4804008800EE041F636
:1043E0009C7008800AE04FF48050088006E04FF48B
:1043F0000060088002E04FF0FF30704700BF0448C3
:10440000C07C10B10888401008800020F5E700004B
:104410005004002001460248007C087000207047CC
:104420005004002001460F48007A30B1012807D01F
:10443000022809D003280FD10AE0FA2008800EE0F4
:104440004FF4FA7008800AE04FF47A70088006E0B2
:104450004FF4FA60088002E00020088000BF00BF2F
:10446000002070475004002001460E48007A30B109
:10447000012807D0022808D003280CD108E00A48F8
:1044800008600BE00948086008E00948086005E09A
:104490000848086002E04FF0FF30704700BF00207E
:1044A000FBE70000500400200000034300008342AB
:1044B000333303423333834101461248C07A08281C
:1044C00017D2DFE800F01704070A0D101318BC20FC
:1044D000088013E06220088010E02A2008800DE0A8
:1044E000142008800AE00A20088007E005200880E0
:1044F00004E000BF00BF0020088000BF00BF002014
:1045000070470000500400200146064890F824003F
:1045100010B14FF0FF3070470248C089088000207A
:10452000F9E70000500400201CB580208DF8000041
:10453000654A1268917C644A526810786B46012281
:10454000FFF7DBFD10B14FF0FF301CBD6420FEF71C
:104550004BFC00208DF800005B4A1268917C5A4A9F
:10456000526810786B460122FFF7C7FD10B14FF07B
:10457000FF30EAE7544A1268917D534A5268107836
:104580006B460622FFF77EFD10B14FF0FF30DCE7EF
:104590009DF80500C007400F9DF8031001F00101D0
:1045A00040EA41009DF8011001F0010140EA0104D8
:1045B00094B1012C03D101214348C17431E0022C94
:1045C00003D100214048C1742BE021463FA0FDF7F4
:1045D00057FB4FF0FF30B8E73B4A1268D1783A4AB0
:1045E000526810786B460122FFF74CFD10B14FF076
:1045F000FF30AAE79DF8000000F00F042CB93D48F9
:10460000FDF73EFB4FF0FF309FE7042C06D13AA0A8
:10461000FDF736FB01212C48C17402E000212A4835
:10462000C174FF2128488172FF2027490872FF21A9
:1046300025484172C1724FF6FF71C181FF2101749B
:1046400081740121017380F82210002180F8231069
:10465000417501751630016041608160163880F83F
:10466000241080F82510C1844FF4FA6000F05CFC3F
:1046700010B14FF0FF3068E7022000F025FB10B1C9
:104680004FF0FF3061E72A2000F0C8FC10B14FF076
:10469000FF305AE7322000F003FD10B14FF0FF3039
:1046A00053E70020FFF72EFE10B14FF0FF304CE72C
:1046B000002000F04BFB10B14FF0FF3045E7002029
:1046C00000F03CFD002040E750040020556E73755B
:1046D00070706F7274656420736F66747761726551
:1046E0002070726F64756374207265762025642E65
:1046F0000A0000007869000848616C662073656EE6
:104700007369746976697479207061727420666F58
:10471000756E642E0D0A00002DE9F04385B0054644
:104720000E4690469946294890F8250020B14FF052
:10473000FF3005B0BDE8F08316B94FF0FF30F8E761
:10474000002423E0281B102801DD102000E0281B96
:1047500087B232193946204600F058FD10B14FF0AB
:10476000FF30E6E701AA3946204600F001F910B112
:104770004FF0FF30DDE730193A4601A9FBF715FD90
:1047800010B16FF00100D4E7E01984B2AC42D9DB7C
:104790004FEA28208DF8000008F0FF008DF8010096
:1047A0000A4A1268917E094A526810786B460222C2
:1047B000FFF7A3FC10B14FF0FF30BAE70121034827
:1047C00080F82510A0F826900020B2E750040020C1
:1047D00038B50446282C02DD4FF0FF3038BDDCB977
:1047E000002000F0E5FB00208DF8000007208DF888
:1047F00001002E4A1268917C2C4A526810786B4650
:104800000222FFF77AFC10B14FF0FF30E6E70021FB
:10481000264801750020E1E7012000F0C9FB2020B7
:104820008DF80000012C06D100208DF80100052034
:1048300000F0F4FB17E0052C06DC01208DF80100E8
:10484000052000F0EBFB0EE0142C06DC02208DF8B6
:1048500001000A2000F0E2FB05E003208DF80100D2
:10486000142000F0DBFB9DF80100072101EB801014
:10487000C0B28DF801000D4A1268917C0B4A526853
:1048800010786B460222FFF738FC10B14FF0FF3072
:10489000A4E70821054881720021017301210175F7
:1048A0000020FFF72FFD002098E7000050040020B3
:1048B000F8B504460F4616462C4890F8240010B967
:1048C0004FF0FF30F8BD2948807A10B94FF0FF3023
:1048D000F8E7264A1268917A244A526810786B46A3
:1048E0000222FFF7CFFB10B14FF0FF30EAE79DF84F
:1048F00001009DF8001040EA0125A54203DA0020DE
:104900003070401EDEE7194840684088B5EB600F04
:1049100017DD164A1268517C144A526810786B46AB
:104920000122FFF7AFFB10B14FF0FF30CAE79DF84F
:10493000000000F0100020B100F05AF86FF0010004
:10494000C0E7E2B2094B1B68D97A084B5B6818785C
:104950003B46FFF797FB10B14FF0FF30B2E795FBF6
:10496000F4F0401E30700020ACE70000500400203E
:10497000F8B504460D46164616B94FF0FF30F8BD9F
:104980001A48807A10B94FF0FF30F8E720128DF8FE
:104990000000E0B28DF801009DF8010028441349A1
:1049A00049684989884202DD4FF0FF30E7E70F4A46
:1049B0001268117E0D4A526810786B460222FFF78A
:1049C0009CFB10B14FF0FF30D9E7EAB2074B1B68F0
:1049D000597D064B5B6818783346FFF753FB10B1DF
:1049E0004FF0FF30CBE70020C9E700005004002063
:1049F00008B56D48807A10B94FF0FF3008BD00202F
:104A00000090694A1268D17B674A526810786B46F9
:104A10000122FFF772FB10B14FF0FF30EEE7624A60
:104A200012685179604A526810786B460122FFF78C
:104A300064FB10B14FF0FF30E0E75B4A1268117978
:104A4000594A526810786B460122FFF756FB10B1A5
:104A50004FF0FF30D2E7544890F82400002850D09F
:104A60000C200090504A126811794F4A5268107811
:104A70006B460122FFF741FB10B14FF0FF30BDE75D
:104A8000C02000904848807A00F0010020B19DF8D5
:104A9000000040F020000090434A12681179424A19
:104AA000526810786B460122FFF727FB10B14FF0D8
:104AB000FF30A3E73C48407C10B10220009001E0A9
:104AC00000200090384A1268D17B374A526810782B
:104AD0006B460122FFF711FB10B14FF0FF308DE75D
:104AE00000200090304A126851792F4A526810789D
:104AF0006B460122FFF701FB002852D04FF0FF3038
:104B00007CE704200090284A12681179264A5268EE
:104B100010786B460122FFF7F0FA10B14FF0FF302A
:104B20006CE72148807C20B91F48807A00F00100A2
:104B300010B94020009001E0602000901A4A1268ED
:104B40001179194A526810786B460122FFF7D5FA9D
:104B500010B14FF0FF3051E71348407C10B10120F5
:104B6000009001E0002000900F4A1268D17B0E4AAD
:104B7000526810786B460122FFF7BFFA10B14FF070
:104B8000FF303BE7084A12685179074A52681078AB
:104B9000054B10330122FFF7B0FA10B14FF0FF3090
:104BA0002CE700202AE70000500400202DE9F04FF8
:104BB0008DB083460F4602200C90424890F82400A6
:104BC00020B1002000F068F9012600E0002603A8CB
:104BD000FFF728FC05A8FFF7CDFB01A8FFF76CFC49
:104BE00002A8FFF791FC374890F80AA004A8FFF745
:104BF00011FC002407E0002239465846FEF782FFE8
:104C000000B902E0641C022CF5DB00BF022C01D1CC
:104C1000002528E0002407E0012206A909A8FEF7E4
:104C200071FF00B902E0641C022CF5DB00BF022C0E
:104C300001D1002517E006A93846FDF725FD00F053
:104C4000FF0809A95846FFF795F900F0FF0900256C
:104C5000B9F1000F01D145F00105B8F1000F01D104
:104C600045F0020500BFFF2016490872FF211548D4
:104C70004172C1724FF6FF71C181FF2181720174CF
:104C800001210173BDF80C0000F04EF99DF81400ED
:104C900000F01AF8BDF8040000F0C0F9BDF80800F3
:104CA00000F0FEF9504600F049FA9DF81000FFF7B9
:104CB00029FB16B1012000F0EFF828460DB0BDE841
:104CC000F08F00005004002038B504461E48807A5A
:104CD00010B94FF0FF3038BD022C06D0042C07D09D
:104CE000082C08D0102C0CD108E0002000900BE01C
:104CF0000820009008E01020009005E018200090A7
:104D000002E04FF0FF30E6E700BF0F48407A9DF821
:104D10000010B0EBE10F01D10020DCE70A4A126875
:104D2000D179094A526810786B460122FFF7E5F9FC
:104D300010B14FF0FF30CEE79DF80000C1100248DF
:104D400041720020C7E700005004002038B5044637
:104D50005048807CA04201D1002038BD002C46D0B4
:104D60004C4A126811794B4A526810786B460122FE
:104D7000FFF788F910B14FF0FF30EEE79DF8000023
:104D800020F020000090434A12681179414A52688D
:104D900010786B460122FFF7B0F910B14FF0FF30E9
:104DA000DBE70320FEF720F802200090394890F856
:104DB000220020B19DF8000040F0800000903548AE
:104DC00090F8230020B19DF8000040F030000090E2
:104DD000304A1268117D2F4A526810786B460122C2
:104DE000FFF78BF9002851D04FF0FF30B5E7294A83
:104DF00012681179274A526810786B460122FFF732
:104E000041F910B14FF0FF30A7E72248807A00F057
:104E1000010028B19DF8000040F02000009004E05F
:104E20009DF8000020F0200000901A4A12681179C5
:104E3000184A526810786B460122FFF75EF910B1EC
:104E40004FF0FF3089E70320FDF7CEFF114890F8BF
:104E5000220010B18020009001E0002000900D4859
:104E600090F8230020B19DF8000040F03000009041
:104E7000084A1268117D074A526810786B46012271
:104E8000FFF73BF910B14FF0FF3066E7014884743B
:104E9000002062E75004002038B50446214890F80D
:104EA0002400A04201D1002038BD24B31D4890F851
:104EB000250010B94FF0FF30F6E7002000F046FA69
:104EC0000020FFF743FF1749C88C00F0E9F80020E5
:104ED00000901449496808786B4601222321FFF7A6
:104EE0000CF901210F4880F82410012000F02EFA5F
:104EF000FFF77EFD13E0002000F028FA0948007C4F
:104F000000900849496808786B4601222321FFF781
:104F1000F4F80021034880F82410FFF769FD002011
:104F2000C2E700005004002038B504461F48807ACC
:104F300010B94FF0FF3038BDFA2C09D0B4F5FA7F24
:104F400009D0B4F57A7F09D0B4F5FA6F0CD108E036
:104F5000002000900BE00820009008E01020009056
:104F600005E01820009002E04FF0FF30E3E700BFBB
:104F70000E48007A9DF80010B0EBE10F01D100203F
:104F8000D9E70A4A12689179084A526810786B4644
:104F90000122FFF7B2F810B14FF0FF30CBE79DF8D8
:104FA0000000C010014908720020C4E7500400202E
:104FB00038B50446184890F82300A04201D10020DB
:104FC00038BD14B13020009001E00020009012485C
:104FD000807C20B19DF8000040F0020000900E4857
:104FE00090F8220020B19DF8000040F08000009071
:104FF000094A1268117D084A526810786B460122EE
:10500000FFF77BF810B14FF0FF30D9E7024880F886
:1050100023400020D4E700005004002038B50446A7
:105020001E48807A10B94FF0FF3038BDBC2C02DB2F
:105030000120009015E0622C02DB0220009010E0BD
:105040002A2C02DB032000900BE0142C02DB04204E
:10505000009006E00A2C02DB0520009001E006200B
:1050600000900E48C07A9DF80010884201D10020BF
:10507000DBE70A4A12689178084A526810786B4652
:105080000122FFF73AF810B14FF0FF30CDE79DF85D
:1050900000100248C1720020C7E700005004002041
:1050A00038B504462448807A10B94FF0FF3038BD37
:1050B000214890F8240010B14FF0FF30F7E71E4868
:1050C000007D50B134B1282C04DCE0B2FFF780FB46
:1050D0000020ECE70020FFF77BFB042C01DA04241E
:1050E00004E0B4F57A7F01DD4FF47A744FF47A70FE
:1050F00090FBF4F0401EC0B200900F4A1268517845
:105100000D4A526810786B460122FEF7F6FF10B187
:105110004FF0FF30CBE79DF80000401C4FF47A7150
:1051200091FBF0F081B20448C1810146C989481061
:10513000FFF774FF0020BAE75004002038B504469A
:1051400004F0700010B10120009005E014B10020BF
:10515000009001E0402000902B4A1268917C2A4A7E
:10516000526810786B460122FEF7C7FF20B100217C
:1051700025488172481E38BD9DF8000020F040018E
:10518000214801730020009004F0400020B99DF8F0
:10519000000040F00400009004F0200020B99DF8C9
:1051A000000040F00200009004F0100020B99DF8CB
:1051B000000040F00100009004F0080020B99DF8C4
:1051C000000040F0380000900F4A1268D17C0E4A6F
:1051D000526810786B460122FEF78FFF20B1002144
:1051E00009488172481EC6E724B1082C02D000206D
:1051F000FFF7DEFE04488472002101753220FDF7BE
:10520000F3FD0020B7E7000050040020F8B5044685
:105210000D46164616B94FF0FF30F8BD1A48807A91
:1052200010B94FF0FF30F8E720128DF80000E0B21F
:105230008DF801009DF80100284413494968498907
:10524000884202DD4FF0FF30E7E70F4A1268117E17
:105250000D4A526810786B460222FEF74EFF10B1DD
:105260004FF0FF30D9E7EAB2074B1B68597D064B78
:105270005B6818783346FEF740FF10B14FF0FF30FF
:10528000CBE70020C9E70000500400207047000071
:1052900070B588B002A905A8FFF788FC0446072C62
:1052A0003FD101A8FFF7E0F80598FBF76CF9064637
:1052B0000199FAF7DFFF0546FBF773F905900698A9
:1052C000FBF761F906460199FAF7D4FF0546FBF7AB
:1052D00068F906900798FBF756F906460199FAF720
:1052E000C9FF0546FBF75DF9079005A8FEF700F931
:1052F0006846FFF765F8BDF8001002984843029031
:10530000BDF80010039848430390BDF800100498BE
:105310004843049002A8FEF71BF803A0FCF7B0FC7A
:1053200000BF08B070BD000073657474696E6720BB
:10533000626961732073756363657366756C6C79FC
:10534000202E2E2E2E2E2E0D0A00000038B50446DB
:10535000214890F82400C0B114B10220009001E06F
:10536000002000901C4A1268D17B1B4A52681078BA
:105370006B460122FEF7C1FE10B14FF0FF3038BD81
:105380009DF800101448417423E01348807A10B946
:105390004FF0FF30F3E724B10F48407C08B1002004
:1053A000EDE714B10120009001E0002000900A4ACE
:1053B0001268D17B084A526810786B460122FEF7CA
:1053C0009CFE10B14FF0FF30D9E79DF80010024865
:1053D00041740020D3E70000500400202DE9F04183
:1053E00006460F46FBF722FB041E0D4618BF0120A0
:1053F000284320F00040C0F17F6000F1E040C00F82
:105400000ED0301C18BF0120384320F00040C0F1FE
:105410007F6000F1E040C00F04BF0120FCF7E0FC1A
:1054200020462946BDE8F081000000000000000091
:10543000002F000000000700070000147F147F14F5
:1054400000242A7F2A12006264081323003649557B
:10545000225000000503000000001C224100000053
:1054600041221C000014083E08140008083E0808E9
:10547000000000A060000008080808080000606044
:105480000000002010080402003E5149453E000083
:10549000427F4000004261514946002141454B3165
:1054A000001814127F10002745454539003C4A4931
:1054B00049300001710905030036494949360006A3
:1054C0004949291E0000363600000000563600000B
:1054D0000008142241000014141414140000412286
:1054E000140800020151090600324959513E007C5E
:1054F0001211127C007F49494936003E4141412248
:10550000007F4141221C007F49494941007F090930
:105510000901003E4149497A007F0808087F0000E0
:10552000417F4100002040413F01007F081422419B
:10553000007F40404040007F020C027F007F040853
:10554000107F003E4141413E007F09090906003EAF
:105550004151215E007F09192946004649494931D8
:105560000001017F0101003F4040403F001F2040FB
:10557000201F003F4038403F0063140814630007B9
:105580000870080700615149454300007F41410010
:1055900000552A552A55000041417F0000040201B0
:1055A000020400404040404000000102040000208E
:1055B00054545478007F48444438003844444420CC
:1055C00000384444487F00385454541800087E0979
:1055D00001020018A4A4A47C007F08040478000041
:1055E000447D4000004080847D00007F10284400FE
:1055F0000000417F4000007C04180478007C08040F
:10560000047800384444443800FC2424241800184A
:10561000242418FC007C0804040800485454542036
:1056200000043F444020003C4040207C001C2040BF
:10563000201C003C4030403C004428102844001C02
:10564000A0A0A07C004464544C44141414141414FA
:10565000000000000000000000000000000000004A
:10566000000000F8000000000000003330000000DF
:1056700000100C06100C06000000000000000000E6
:1056800040C07840C0784000043F04043F04040058
:10569000007088FC08300000001820FF211E000068
:1056A000F008F000E018000000211C031E211E007D
:1056B00000F00888700000001E2123241927211003
:1056C00010160E00000000000000000000000000A6
:1056D000000000E01804020000000007182040004D
:1056E00000020418E000000000402018070000003D
:1056F000404080F0804040000202010F01020200A1
:10570000000000F0000000000101011F0101010084
:10571000000000000000000080B0700000000000E9
:105720000000000000000000000101010101010172
:105730000000000000000000003030000000000009
:1057400000000000806018040060180601000000DE
:1057500000E010080810E000000F102020100F00DB
:10576000001010F8000000000020203F2020000062
:1057700000700808088870000030282422213000BA
:1057800000300888884830000018202020110E00C2
:105790000000C02010F8000000070424243F24006B
:1057A00000F80888880808000019212020110E0040
:1057B00000E0108888180000000F112020110E0052
:1057C00000380808C83808000000003F000000004A
:1057D0000070880808887000001C222121221C000B
:1057E00000E010080810E0000000312222110F0034
:1057F000000000C0C00000000000003030000000C9
:105800000000008000000000000080600000000038
:105810000000804020100800000102040810200051
:10582000404040404040400004040404040404009C
:105830000008102040800000002010080402010031
:10584000007048080808F000000000303601000031
:10585000C030C828E810E0000718272423140B00E4
:105860000000C038E0000000203C2302022738205E
:1058700008F8888888700000203F202020110E0042
:10588000C030080808083800071820202010080039
:1058900008F808080810E000203F202020100F0022
:1058A00008F88888E8081000203F202023201800EE
:1058B00008F88888E8081000203F20000300000056
:1058C000C03008080838000007182020221E0200F7
:1058D00008F808000008F808203F210101213F20B6
:1058E000000808F8080800000020203F20200000E1
:1058F00000000808F8080800C08080807F000000D1
:1059000008F888C028180800203F20012638200009
:1059100008F8080000000000203F20202020300070
:1059200008F8F800F8F80800203F003F003F20008A
:1059300008F830C00008F808203F200007183F0092
:10594000E01008080810E0000F10202020100F00C1
:1059500008F808080808F000203F210101010000B4
:10596000E01008080810E0000F18242438504F00F9
:1059700008F8888888887000203F2000030C3020B9
:1059800000708808080838000038202121221C00F7
:10599000180808F8080818000000203F2000000040
:1059A00008F808000008F808001F202020201F0029
:1059B0000878880000C83808000007380E01000089
:1059C000F80800F80008F800033C0700073C030053
:1059D000081868808068180820302C03032C3020B9
:1059E0000838C800C83808000000203F2000000028
:1059F00010080808C8380800203826212020180080
:105A0000000000FE020202000000007F4040400053
:105A1000000C30C000000000000000010638C0008B
:105A200000020202FE000000004040407F00000033
:105A30000000040202020400000000000000000058
:105A40000000000000000000808080808080808056
:105A5000000202040000000000000000000000003E
:105A600000008080808000000019242222223F2034
:105A700008F8008080000000003F112020110E0077
:105A80000000008080800000000E11202020110006
:105A9000000000808088F800000E112020103F20B8
:105AA0000000808080800000001F2222222213003C
:105AB000008080F0888888180020203F2020000087
:105AC0000000808080808000006B9494949360003C
:105AD00008F8008080800000203F210000203F2047
