:020000040800F2
:1000000060080020A10500087503000877030008B8
:100010007B0300087F030008830300080000000042
:10002000000000000000000000000000870300083E
:1000300089030008000000008B0300088D030008FE
:10004000BB050008BB050008BB050008BB05000890
:10005000BB050008BB050008BB050008BB05000880
:10006000BB050008BB050008BB050008BB05000870
:10007000BB050008BB050008BB050008BB05000860
:10008000BB050008BB050008BB050008BB05000850
:10009000BB050008BB050008BB050008BB05000840
:1000A000BB050008BB050008BB050008BB05000830
:1000B000BB050008BB050008BB050008BB05000820
:1000C000BB050008BB050008BB050008BB05000810
:1000D000BB050008AB150008BB050008BB05000800
:1000E000BB050008BB050008BB050008BB050008F0
:1000F000BB050008BB050008BB050008BB050008E0
:10010000BB050008BB050008BB050008BB050008CF
:10011000BB050008BB050008BB050008BB050008BF
:10012000BB050008BB050008BB050008BB050008AF
:10013000BB050008BB050008BB050008BB0500089F
:10014000BB050008BB050008BB050008BB0500088F
:10015000BB050008BB050008BB050008BB0500087F
:10016000BB050008BB050008BB050008BB0500086F
:10017000BB050008BB050008BB050008BB0500085F
:10018000BB050008BB05000800F002F800F044F8C9
:100190000AA090E8000C82448344AAF10107DA45E2
:1001A00001D100F039F8AFF2090EBAE80F0013F0F0
:1001B000010F18BFFB1A43F0010318472820000065
:1001C00048200000103A24BF78C878C1FAD85207F6
:1001D00024BF30C830C144BF04680C6070470000C1
:1001E0000023002400250026103A28BF78C1FBD840
:1001F000520728BF30C148BF0B6070471FB501F0E0
:10020000E6FF9DE8030001F0A7FD01F071FA1FBDB4
:1002100010B501F0D6FA10BD01F039FB1146FFF719
:10022000EDFF00F009F801F03DFD03B4FFF7F0FF2A
:1002300003BC01F023FF000000244FF4A06000F095
:10024000CFF9A82001F0DEF801F05EF901F0F2F933
:100250004BE02648008800F40040E8B123480678C7
:1002600023A001F007FA00250DE02648415D26484D
:1002700000F0B8FF00BF4021234801F063F80128D7
:10028000F9D1681CC5B2B542EFDB20A001F0F2F94C
:1002900000201649088028E0601C84B241F28830B2
:1002A00094FBF0F100FB114028B91AA001F0E2F92B
:1002B00022A001F0DFF9C82094FBF0F100FB11400F
:1002C00010B924A001F0D6F91E2094FBF0F100FB38
:1002D000114038B92648006808B9012000E0002024
:1002E000234908600A2001F0EFF8B2E72800002057
:1002F0000D0AC4FAB7A2CBCDB5C4CFFBCFA2CEAA0C
:100300003A0D0A0038000020001001400D0A0D0AC5
:10031000000000000D0A206D63756465762053545B
:100320004D333246343037BFAAB7A2B0E520B4AE61
:10033000BFDACAB5D1E90D0A000000006D6375642B
:1003400065762E74616F62616F2E636F6D0D0A0D9D
:100350000A0D0A00C7EBCAE4C8EBCAFDBEDD2CD209
:10036000D4BBD8B3B5BCFCBDE1CAF80D0A0000008F
:10037000A4824242704700BFFEE700BFFEE700BF15
:10038000FEE700BFFEE77047704770477047000008
:100390000CB50020019000907648006840F4803051
:1003A0007449086000BF7348006800F40030009092
:1003B0000198401C0190009818B90198B0F5A04F21
:1003C000F1D16C48006800F4003010B101200090B9
:1003D00001E0002000900098012846D16548403097
:1003E000006840F08050634940310860624800680E
:1003F00040F44040604908605E48083000685D494C
:10040000083108600846006840F40040086008466B
:10041000006840F4A05008605848091F0860081F91
:10042000006840F08070091F086000BF51480068F4
:1004300000F000700028F9D040F2057050490860C3
:100440004C480830006820F003004A490831086031
:100450000846006840F00200086000BF45480830C8
:10046000006800F00C000828F8D10CBD10B5454814
:10047000006840F47000434908603E48006840F05E
:1004800001003C49086000203A49083108603948B9
:1004900000683D490840374908603C48091D08602C
:1004A000081F006820F48020091F086000203149DF
:1004B0000C310860FFF76CFF4FF000603149803964
:1004C000086010BD70B50020002202230024022124
:1004D000284D08352D6805F00C0020B1042806D001
:1004E000082834D107E02A4D2A4E356033E02A4DE2
:1004F000284E35602FE01F4D2D1D2D68C5F380540B
:100500001C4D2D1D2D6805F03F0154B1224DB5FB4A
:10051000F1F5184E361D3668C6F3881605FB06F24F
:1005200009E01B4DB5FBF1F5124E361D3668C6F3DA
:10053000881605FB06F20F4D2D1D2D68C5F30145EC
:100540006D1C6B00B2FBF3F5124E356003E0104DED
:10055000104E356000BF00BF064D08352D68C5F34D
:1005600003150E4E705D0B4D2D68C540094E35606C
:1005700070BD000000380240007000400854400781
:10058000003C024088ED00E0FFFFF6FE1030002442
:100590000024F4000000002000127A000400002073
:1005A0000948804709480047FEE7FEE7FEE7FEE707
:1005B000FEE7FEE7FEE7FEE7FEE7FEE70448054943
:1005C000054A064B704700006D04000889010008C9
:1005D0006002002060080020600400206004002009
:1005E00032490143324A1160704770B5002100233F
:1005F0000F22C4781CB32E4C246804F4E064C4F5C4
:10060000E064C4F30721C1F10404E3B20A41447871
:100610009C40E1B28478144021430C07210E254C04
:1006200005786155047804F01F050124AC40057875
:100630006D11AD0005F1E025C5F8004109E0047831
:1006400004F01F050124AC401B4D0678761145F8D7
:10065000264070BD194A0A400243154B1B1F1A6001
:10066000704739B1124A121D12680243104B1B1D0C
:100670001A6006E00E4A121D126882430C4B1B1DC5
:100680001A607047042808D14FF0E021096941F051
:1006900004014FF0E022116107E04FF0E021096909
:1006A00021F004014FF0E022116170470000FA05CB
:1006B0000CED00E000E400E080E100E080FFFF1FBF
:1006C00010B504469848844208D10121084600F03C
:1006D00086FB0021012000F082FB76E093488442F3
:1006E00008D10121022000F07AFB0021022000F055
:1006F00076FB6AE08E48844208D10121042000F094
:100700006EFB0021042000F06AFB5EE08948844211
:1007100008D10121082000F062FB0021082000F030
:100720005EFB52E08448844208D10121102000F091
:1007300056FB0021102000F052FB46E07F48844227
:1007400008D10121202000F04AFB0021202000F0E8
:1007500046FB3AE07A48844208D10121402000F06B
:100760003EFB0021402000F03AFB2EE07548844219
:1007700008D10121802000F032FB0021802000F010
:100780002EFB22E07048844208D10121801500F040
:1007900026FB0021A01500F022FB16E06B488442E6
:1007A00008D10121401500F01AFB0021601500F06E
:1007B00016FB0AE06648844207D10121001500F0CB
:1007C0000EFB0021201500F00AFB10BDF0B50A4613
:1007D00000210023002400BF3DE0012505FA01F3BC
:1007E000156805EA03049C4234D105684F000326CE
:1007F000BE40B543056015794E00B54006683543E7
:1008000005601579012D02D01579022D16D1856864
:100810004F000326BE40B543856055794E00B54074
:10082000866835438560456801268E40B54345603E
:10083000456896798E40B6B235434560C5684F002D
:100840000326BE40B543C560D5794E00B540C668A5
:100850003543C560491C1029BFD3F0BD4FF6FF7169
:1008600001600021017141718171C171704708B54A
:100870004FF480320092009A0A430092009AC261BB
:10088000C161009AC261C2690092C269009208BD4A
:100890000246002013690B400BB1012000E000204C
:1008A00070470146086980B27047024600205369CC
:1008B0000B400BB1012000E0002070470146486961
:1008C00080B2704701837047418370470AB101834A
:1008D00000E0418370474161704742694A4042618C
:1008E0007047F0B5002300244D07ED0E02FA05F322
:1008F000CE1000F1200555F826504E07F70E0F26B2
:10090000BE40B543CF1000F1200646F82750CE1068
:1009100000F1200555F8265045EA0304CE1000F1F9
:10092000200545F82640F0BD0000024000040240CA
:1009300000080240000C0240001002400014024077
:1009400000180240001C0240002002400024024027
:1009500000280240F948006840F00100F7490860AB
:100960000020F64908310860F4480068F44908405E
:10097000F2490860F348091D0860F348EF498431E3
:100980000860F0481038091D0860EC48006820F441
:100990008020EA4908600020E8490C310860E749F6
:1009A0008C31086070470021E44A921C1170114696
:1009B0000870704710B501460022002300204A113C
:1009C000012A02D1DD4C236808E0022A03D1DB4C66
:1009D0007034236802E0D94C7434236801F01F029C
:1009E000012494401C400CB1012000E0002010BD07
:1009F00038B5002000900024002500BF3120FFF70B
:100A0000D9FF05460098401C00900098B0F5A04F13
:100A100001D0002DF2D03120FFF7CCFF08B1012426
:100A200000E00024204638BD01460020C34A10687B
:100A300020F0F80040EAC10010607047C349086028
:100A400070470021BD4A703211701170012802D028
:100A500004280AD104E00121B84A7032117005E07F
:100A60000521B64A7032117000E000BF00BF704728
:100A7000B7490860704770B5049C41EA82150126A9
:100A8000C6EB530645EA0645054345EA0465AB4E09
:100A9000361D356070BDAD4908667047820142EA77
:100AA0000172A64B84331A607047A8498866704764
:100AB00010B5830143EA016343EA02739F4C883413
:100AC000236010BDA14908677047A049C8647047FA
:100AD00002460020994B0833186820F0EC6042EA87
:100AE00001031843954B08331860704702460020F5
:100AF000924B0833186820F0784042EA010318430B
:100B00008E4B083318607047014600208B4A08322C
:100B1000106820F0030008431060704787480830D1
:100B2000006800F00C00704701460020834A08323C
:100B3000106820F0F0000843106070470146002064
:100B40007E4A0832106820F4E05008431060704775
:100B500001460020794A0832106820F4604040EADB
:100B6000C10010607047F0B500210022002402256A
:100B700000260223714F08373F6807F00C0121B1AE
:100B8000042905D0082937D105E0724F076036E007
:100B9000714F076033E0694F3F1D3F68C7F38056D0
:100BA000664F3F1D3F6807F03F036EB16A4FB7FBCA
:100BB000F3F7DFF888C10CF1040CDCF800C0CCF3CB
:100BC000881C07FB0CF40CE0624FB7FBF3F7DFF86F
:100BD0006CC10CF1040CDCF800C0CCF3881C07FBE2
:100BE0000CF4564F3F1D3F68C7F301477F1C7D0043
:100BF000B4FBF5F7076002E0564F076000BF00BF87
:100C00004E4F08373F6807F0F0010909534F7A5CEF
:100C10000768D7404760494F08373F6807F4E051FD
:100C2000890A4E4F7A5C4768D7408760434F083740
:100C30003F6807F46041490B484F7A5C4768D740EA
:100C4000C760F0BD002100F44072B2F5407F0AD1C8
:100C50003A4A0832116821F4F811414A024011431E
:100C6000364A08321160354A70321268C0F30B03FD
:100C70001A43324B70331A60704735494439086063
:100C800070473349403908607047364908607047FB
:100C900001460020294A8C32106820F01F004A1EAD
:100CA0001043264A8C321060704701460020234AC8
:100CB0008C32106820F4F8504A1E40EA02201F4A85
:100CC0008C3210607047014600201C4A8C3210683C
:100CD00020F4401008431060704701460020174A76
:100CE0008C32106820F440000843106070470146C1
:100CF0000020124A8C32106820F440300843106003
:100D0000704719490860704739B10C4A303212688F
:100D100002430A4B30331A6006E0084A3032126848
:100D20008243064B30331A607047F9B1034A3432BC
:100D300012680243014B34331A601CE00038024051
:100D4000FFFFF6EA10300024003000200000474288
:100D5000800E47420024F40000127A0014000020A4
:100D6000FFFCFF0F5C014742E01147428F4A1268C7
:100D700082438E4B1A60704739B18C4A121D12683B
:100D800002438A4B1B1D1A6006E0884A121D126836
:100D90008243864B1B1D1A60704739B1834A0C325F
:100DA00012680243814B0C331A6006E07F4A0C3212
:100DB000126882437D4B0C331A60704739B17B4A0D
:100DC000103212680243794B10331A6006E0774AFA
:100DD000103212688243754B10331A60704739B174
:100DE000724A243A12680243704B243B1A6006E0B0
:100DF0006E4A243A126882436C4B243B1A60704757
:100E000039B16A4A203A12680243684B203B1A60A3
:100E100006E0664A203A12688243644B203B1A601F
:100E2000704739B1614A1C3A126802435F4B1C3B60
:100E30001A6006E05D4A1C3A126882435B4B1C3B19
:100E40001A60704739B1594A143A12680243574B35
:100E5000143B1A6006E0554A143A12688243534B19
:100E6000143B1A60704739B1504A103A1268024375
:100E70004E4B103B1A6006E04C4A103A126882430F
:100E80004A4B103B1A60704739B1484A1C3212680D
:100E90000243464B1C331A6006E0444A1C32126877
:100EA0008243424B1C331A60704739B13F4A2032AB
:100EB000126802433D4B20331A6006E03B4A203261
:100EC00012688243394B20331A60704739B1374A70
:100ED000243212680243354B24331A6006E0334A49
:100EE000243212688243314B24331A60704739B17F
:100EF0002E4A2C32126802432C4B2C331A6006E027
:100F00002A4A2C3212688243284B2C331A607047CD
:100F100039B1264A303212680243244B30331A600A
:100F200006E0224A303212688243204B30331A6086
:100F30007047012808D11D493C31096841F008017A
:100F40001A4A3C32116007E018493C31096821F027
:100F50000801164A3C321160704739B1134A273AEA
:100F600012780243114B273B1A7006E00F4A273ACA
:100F7000127882430D4B273B1A7070470B48403064
:100F8000006840F0807009494031086070470146B0
:100F90000020064A283A12680A400AB1012000E0FF
:100FA00000207047014926390870704734380240E4
:100FB00010B50446FA48844208D101211020FFF7F9
:100FC00052FF00211020FFF74EFF57E0F548844202
:100FD00009D101214804FFF735FF00214FF400300B
:100FE000FFF730FF4AE0F048844209D1012188042C
:100FF000FFF728FF00214FF48020FFF723FF3DE09B
:10100000EA48844209D10121C804FFF71BFF0021EF
:101010004FF40020FFF716FF30E0E548844209D185
:1010200001210805FFF70EFF00214FF48010FFF7A4
:1010300009FF23E0DF48844208D101212020FFF787
:1010400012FF00212020FFF70EFF17E0DA4884424C
:1010500009D101218807FFF7F5FE00214FF08040FC
:10106000FFF7F0FE0AE0D548844207D10121400590
:10107000FFF7E8FE00216005FFF7E4FE10BD2DE953
:10108000FF4705460E460024A14600BFA046B08992
:1010900000B100BF2C8A24F44054F08804432C8211
:1010A000AC8941F20C608443B0883189084371896E
:1010B00008430443AC81AC8A24F44074B0890443EF
:1010C000AC826846FFF74FFDB548854202D0B9486B
:1010D000854202D1DDF80C9001E0DDF80890A88986
:1010E00000F4004040B109EBC90000EB0910316881
:1010F0004900B0FBF1F707E009EBC90000EB09106C
:1011000031688900B0FBF1F76420B7FBF0F004010F
:101110002009642101FB1078A88900F4004040B147
:10112000322000EBC800B0FBF1F000F007000443F0
:1011300008E0322000EB08106421B0FBF1F000F071
:101140000F0004432C81BDE8FF874FF41651016066
:1011500000218180C18001810C2141810021818198
:10116000704710B502460020108A20F470600B888A
:101170004C8823438C882343CC8823431843108214
:1011800010BD0021018041808180C180704721B164
:10119000828942F40052828104E082894DF6FF7315
:1011A0001A4082817047028B02F47F420283028BD5
:1011B0000A430283704721B1828942F4004282814E
:1011C00003E08289C2F30E028281704721B1828AD4
:1011D00042F40062828204E0828A4FF2FF731A4076
:1011E00082827047C1F30802828070470146888876
:1011F000C0F308007047028A4FF6F0731A4002826B
:10120000028A0A430282704721B1828942F00202B7
:10121000828104E082894FF6FD731A408281704713
:1012200082894FF2FF731A40828182890A43828148
:101230007047028A4FF6DF731A400282028A0A431D
:101240000282704721B1028A42F48042028204E0A5
:10125000028A4BF6FF731A4002827047818941F07F
:1012600001018181704721B1828A42F008028282A5
:1012700004E0828A4FF6F7731A4082827047028B2D
:10128000D2B20283028B42EA01220283704721B16B
:10129000828A42F02002828204E0828A4FF6DF7363
:1012A0001A408282704721B1828A42F01002828203
:1012B00004E0828A4FF6EF731A4082827047828A76
:1012C0004FF6FB731A408282828A0A4382827047F9
:1012D00021B1828A42F00202828204E0828A4FF6C1
:1012E000FD731A40828270471AB1838A0B4383824E
:1012F00002E0838A8B4383827047F0B50346002463
:1013000000260025002040F66A17B94200D100BF30
:101310001846C1F3421401F01F06012707FA06F52B
:10132000012C01D10C3004E0022C01D1103000E07E
:1013300014301AB107682F43076002E00768AF4313
:101340000760F0BD02460020B1F5007F00D100BF6C
:1013500013880B400BB1012000E00020704701F41E
:101360000072B2F5007F00D100BFCA43028070470F
:1013700070B50246002400230025002040F66A16BE
:10138000B14200D100BFC1F3421501F01F03012695
:1013900006FA03F3012D13D19689334017E00000BC
:1013A000001001400044004000480040004C004054
:1013B000005000400014014000780040007C0040D4
:1013C000022D02D1168A334001E0968A33400C1276
:1013D000012606FA04F41688344013B10CB101203A
:1013E00000E0002070BD10B50022002340F66A1412
:1013F000A14200D100BF0A1201249440A3B2DC43F1
:10140000048010BD10B504466FF00400FFF73AF9F0
:10141000E11704EB5171C1F3C701394A117010464D
:10142000007800EB4001C1EBC0104FF6FF7101EAFC
:10143000C0003449088010BD0146314A12784A4341
:101440004FF0E0235A6100229A611A46126942F075
:1014500001021A6100BF4FF0E022106900F00102A2
:101460001AB100F48032002AF5D04FF0E022126960
:1014700022F001024FF0E0231A6100229A617047C6
:101480000146204A12884A434FF0E0235A61002265
:101490009A611A46126942F001021A6100BF4FF0C8
:1014A000E022106900F001021AB100F48032002A33
:1014B000F5D04FF0E022126922F001024FF0E02354
:1014C0001A6100229A61704770B504464FF40770A4
:1014D00094FBF0F0C6B24FF4077094FBF0F100FB00
:1014E000114085B205E04FF40770FFF7C9FF701E89
:1014F000C6B2002EF7D115B12846FFF7C1FF70BD67
:10150000240000202600002000B587B001210846F5
:10151000FFF7FAFB01211020FFF750FC07220921F9
:101520004048FFF7DEF907220A213E48FFF7D9F9C4
:101530004FF4C060059002208DF8180001208DF84E
:101540001B0002208DF8190000208DF81A0005A953
:101550003448FFF73BF94FF4165001900020ADF8E6
:101560000800ADF80A00ADF80C000C20ADF80E0034
:101570000020ADF8100001A92B48FFF780FD0122E3
:1015800040F225512848FFF7B8FE25208DF80000CD
:1015900003208DF801008DF8020001208DF8030072
:1015A0006846FFF722F807B000BD10B540F225519C
:1015B0001D48FFF7DDFE10B31B48FFF717FEC4B24E
:1015C0001A48008800F40040C8B91848008800F4A0
:1015D000804060B10A2C03D000201449088020E02C
:1015E0001248008840F400401049088019E00D2C92
:1015F00006D10E48008840F480400C49088010E075
:101600000A480088C0F30D0009490C5407480088B7
:10161000401C0649088008460088C72801DD0020D4
:10162000088010BD0000024000100140280000208A
:10163000380000201CB501212020FFF765FB4FF486
:10164000C060009001208DF8040000208DF8060095
:1016500003208DF8050001208DF807006946044835
:10166000FFF7B4F84FF4C0610148FFF72BF91CBD38
:10167000001402400FB4044910B503AA029800F008
:1016800009F810BC5DF814FB540100207047704746
:1016900070470000074B70B50D467B4400F011F811
:1016A0000446284600F020F810B14FF0FF3070BD1E
:1016B000204670BD170B000001694A1C02610878C2
:1016C000704700B58FB0CDE9013100210591054982
:1016D0007944CDE903101146684600F024F90FB0B3
:1016E00000BD0000E5FFFFFF007B00F080007047B9
:1016F00010B54248542100F0E5FA4148542100F069
:10170000E1FA4048542100F0DDFA3F493B483C4AA9
:101710003F4B08603D490A603A491960531C036514
:10172000481C1065012008653B48344A39A17844BB
:1017300000F01CFA20B9384878440A3800F0BBFAA7
:1017400037482F4A35A1784400F010FA20B93448C0
:1017500078440A3800F0AFFA32482A4A2FA1784478
:1017600000F004FA20B92F4878440A3800F0A3FAB0
:1017700040232248DC000021224600F0D3F920B1AA
:1017800025487844543800F096FA1D4822464023F4
:10179000002100F0C7F920B121487844543800F006
:1017A0008AFA184822461023002100F0BBF90028CD
:1017B00006D01C487844BDE81040563800F07BBA8B
:1017C00010BD104870B5006D20F001040B4800F00A
:1017D00043FA0B4800F040FA0A4800F03DFA09E0ED
:1017E000206D20F00105204600F036FA204600F07A
:1017F00073F82C46002CF3D170BD000000010020CE
:1018000054010020A80100202C00002030000020FE
:101810003400002072000000A60A000077000000DB
:10182000920A00007E0A00000EB5CDE9000100F02A
:1018300005FC029069460120ABBE0EBD08B56946A5
:1018400000900220ABBE08BD1FB58DE807006946B9
:101850000520ABBE04B010BD1FB58DE80F00694672
:101860000620ABBEF6E708B5694600900920ABBE7E
:1018700008BD1CB5CDE9000169460A20ABBE1CBD00
:10188000704708B5694600900C20ABBE08BD754690
:1018900000F040FAAE4605006946534620F00700C6
:1018A000854618B020B5FEF789FEBDE820404FF010
:1018B00000064FF000074FF000084FF0000B21F03A
:1018C0000701AC46ACE8C009ACE8C009ACE8C00907
:1018D000ACE8C0098D46704770B50446051F00F09E
:1018E0001FFA0068002C14BF446870BD002C18BF9C
:1018F000AC423CBF20466468F8D301680A18AA428B
:1019000018BF456003D12A68054611440160286864
:101910004119A1421CBF6C6070BD6168696021689B
:101920000844286070BD2DE9F04106460024D6E940
:101930000170F5688046304603E04146B847641CB4
:101940003046A8470028F8D12046BDE8F0812DE9AF
:10195000F04705460C46C86820F4201040F480008B
:10196000C860800602D5084600F027FBE06841F217
:1019700082014FF0FF390140022903D0204600F0D8
:10198000C5FAB5E000F42041B1F5004F0FD1C00316
:1019900006D56168E06A884200D80846606006E0C3
:1019A0002069E06260606069FFF76BFFA061A0687A
:1019B0000022EEB200280DDAE1688B050AD4C0439C
:1019C000A06041F490302260E0606068411C61607A
:1019D0000670A5E0E0689046226040F40050E060A8
:1019E000206968BB6069FFF73EFF012704F1240509
:1019F000A0B1A08910F4407F08D0E06900F0DBF9C5
:101A0000206118B1E06840F4006016E0E7612561EC
:101A1000E06820F4407040F480600EE0E06900F07F
:101A2000CAF900282061F1D0E06840F4006010F4A9
:101A3000407FE06002D140F48070E0602069606027
:101A4000E06825696FF0010AC1051FD56168E06A89
:101A5000884200D80846411B04D02246284600F0A0
:101A60005FFAF0BBE068010203D5E562C4E9015802
:101A700054E0691CE1626160E16940F48030491E14
:101A8000C4E9021030462E70BDE8F087010202D58D
:101A900000F480320AE06068411C61600670E06812
:101AA0000A2E40F48030E06006D00022E16A6068CF
:101AB000814203D90B4602E00122F7E70346A789DA
:101AC0005B1B7F0503D4E7699F4200DDE2B18142E1
:101AD00000D80146E5620F1AC4E90158002B09DD60
:101AE00000E005E022461946284600F019FA08B140
:101AF0004846C9E747B1A069E5626560C01BA061BF
:101B0000E06840F01000E060E068000208D561681D
:101B1000A069E562491B08446560A0615046B3E7CF
:101B20003046B1E770B5C468A50713D0650211D47B
:101B3000B2F5807F09D0B2F5007F06D0B2F5806F94
:101B400008D1012300F1240106E05D1E6FF07F46FD
:101B5000B54201D3012070BD0161C361416024F42D
:101B600070611143C160002070BD00002DE9F0419B
:101B70000C4607461646104600F06EF82078611CA9
:101B800061280AD0722802D077283CD102E00125D2
:101B9000002405E00225042402E0082448F202059E
:101BA00011F8010B2B2806D0622809D011F8010C7E
:101BB00074280AD00BE045F0030544F00204EFE777
:101BC00045F0040544F00104EAE744F01004384607
:101BD0002146FFF729FE411C15D0002131617160BB
:101BE0004FF40071F560F1617061200704D5304653
:101BF0000222002100F00EF9306D40F00100306546
:101C00003046BDE8F0810020FBE72DE9F0410D46AC
:101C10000646104C206DC10704D0410804D020F0C6
:101C20000104F7E722460EE0542000F0C4F8070054
:101C30000ED0206D47F0010108435421206538463D
:101C400000F040F83A4629463046BDE8F0418DE7BD
:101C50000020D6E7000100202DE9F04704464FF0B0
:101C600000094FF0FF37C568D4E90486A80707D0FC
:101C7000204600F07FF93046FFF7E0FD002802DA49
:101C80003846BDE8F087280502D54046FFF724FE18
:101C90004C21204600F016F8206D20F00100206550
:101CA0004846EEE710B50446AFF300802046BDE895
:101CB0001040FEF7BABA10B500F0A6F9BDE8104022
:101CC00000F09CB94FF0000200B5134694469646CA
:101CD000203922BFA0E80C50A0E80C50B1F120013F
:101CE000BFF4F7AF090728BFA0E80C5048BF0CC0ED
:101CF0005DF804EB890028BF40F8042B08BF70474B
:101D000048BF20F8022B11F0804F18BF00F8012BBC
:101D10007047000000487047FC0100207047000039
:101D200000487047040200207047704770477047B2
:101D300038B504460A4600206946AFF30080002803
:101D400008BF38BD02460099204600F0A4F90120E2
:101D500038BD012000F0F3B9F8B5AFF300800546B7
:101D600000200C46102000BF0646A819A0420DD93D
:101D7000324669460020AFF30080070008BF00F03C
:101D8000DEF90098A04218BF0546C419FFF7C8FF46
:101D900005600746F01D20F007004619284600F0B0
:101DA00073F9B44208BFF8BDA21B31463868BDE8DC
:101DB000F84000F070B970B50646FFF7B1FF05684E
:101DC00006F10B0020F00704B4429CBF002070BD58
:101DD0002B466A68BAB11068A04210D304F108011A
:101DE00088423CBF5068586007D351681019416061
:101DF0001168091B016058601460101D70BD134606
:101E00005268002AE7D121462846FFF791FF0028B3
:101E1000DED170BD2DE9F041044616460D464769F6
:101E2000007B80072ED03846FFF71DFD50BB3EB328
:101E3000012E02D0022E25D104E0204600F045F903
:101E400005441DE03846FFF71CFDE168002841F01D
:101E50001001E16005DA204600F058F80120BDE8E5
:101E6000F081C9030BD56268E16A914200D811463E
:101E7000A26911442269891A814200DD084605449D
:101E8000002D01DA0220EAE7E16A6068E268814237
:101E900006D29103E06203D522F4003141F0100232
:101EA000A6690027AE4213DCE16A814201D90B46E4
:101EB00000E0034603EB060C2369ACEB030CAC45D6
:101EC00006DD814201D98C4600E084469C4505D15F
:101ED000A760276042F02000A5620DE0AD1BE66917
:101EE000AE1B8142A66000D90846C01A281A20609D
:101EF0005819606022F0200003490840E06000208B
:101F000084F84870ABE70000BFCFD7FFC16821F469
:101F1000001141F08001C1600021816001607047C3
:101F20002DE9F047814614460E464FF0FF383248FF
:101F3000D5685769054209D03846A169FFF799FC71
:101F4000002811DB2C48C0430540E5602B46324693
:101F500049463846FFF778FCA16920F00042B21AE2
:101F600011440028A16103D02046FFF7CFFF40466F
:101F7000BDE8F08770B504460569C06A61688842AB
:101F800000D80846E16821F42011E160C90312D5A8
:101F9000A84208D02246411B2846FFF7C1FF10B1D6
:101FA0004FF0FF3070BD0020E562C4E90150E068E9
:101FB00020F48030E060002070BD10B50446C06899
:101FC00020F02000E060A16AA06988420DD0204680
:101FD000FFF7D0FFE06820F4405040F01000E060D0
:101FE000A06AA0612069E062606044F24001E0689C
:101FF0008843E06010BD000010000200002801D0FE
:1020000000F03CB87047000010B5014602A000F097
:102010007DF8012010BD00005349475254524544F9
:102020003A2052656469726563743A2063616E2771
:1020300074206F70656E3A200000000010B5431CDC
:1020400002E010F8011B71B18107FAD14FF00132A3
:1020500002C88C1A8C4314EAC211F9D0C01A0A06BD
:1020600003D0C01E10BDC01A10BD0A0401D0801ECE
:1020700010BD0902FCD0401E10BD0000014918200F
:10208000ABBEFEE72600020000210160C0E901109E
:10209000704710207047034640688C46002818BFE0
:1020A00088423CBF03464068F8D318681844884209
:1020B00007D00CF1030020F00700001D411A521A4E
:1020C0000146081D0A60FFF707BC10B50146C2684B
:1020D000900703D0900607D5886A0AE000F03EF822
:1020E00001210160881E10BD8B69486818440B6986
:1020F000C01A91F848301BB191F84910401A10BD30
:102100001103FCD50028FADD401E10BD70B5054650
:102110000C460A2000E06D1C00F018F835B1287854
:102120000028F8D102E0641C00F010F814B1207807
:102130000028F8D1BDE870400A2000F007B810B5BB
:1021400000F010F8BDE81040FFF758BF08B5694629
:102150008DF800000320ABBE08BD000000487047AA
:10216000FC01002010B5012805D0002103A0FFF7D5
:10217000CDFF012010BD09A1F8E7000053494752E7
:10218000544D454D3A204F7574206F662068656147
:1021900070206D656D6F7279000000003A2048650F
:1021A0006170206D656D6F727920636F72727570EA
:1021B000746564008A68002A01DCFFF7C8BB521E00
:1021C0008A604A68C0B2531C4B60107070474FF071
:1021D0004070E1EE100A70473A7474003A7474006B
:1021E0003A74740004220008000000203800000047
:1021F000C40100083C220008380000202808000024
:10220000E0010008007A030A00000000000000005E
:10221000010203040607080900000000010203048C
:102220000102030406070809000000000000000086
:0C223000000000000000000000000000A2
:040000050800018965
:00000001FF
